{
  "contractName": "Bank1",
  "abi": [
    {
      "constant": true,
      "inputs": [
        {
          "internalType": "address",
          "name": "",
          "type": "address"
        }
      ],
      "name": "kycDetails",
      "outputs": [
        {
          "internalType": "string",
          "name": "fullname",
          "type": "string"
        },
        {
          "internalType": "string",
          "name": "fathername",
          "type": "string"
        },
        {
          "internalType": "string",
          "name": "gender",
          "type": "string"
        },
        {
          "internalType": "string",
          "name": "dob",
          "type": "string"
        }
      ],
      "payable": false,
      "stateMutability": "view",
      "type": "function"
    },
    {
      "constant": true,
      "inputs": [
        {
          "internalType": "address",
          "name": "",
          "type": "address"
        }
      ],
      "name": "userDetails",
      "outputs": [
        {
          "internalType": "uint256",
          "name": "uid",
          "type": "uint256"
        },
        {
          "internalType": "string",
          "name": "username",
          "type": "string"
        },
        {
          "internalType": "string",
          "name": "password",
          "type": "string"
        }
      ],
      "payable": false,
      "stateMutability": "view",
      "type": "function"
    },
    {
      "constant": true,
      "inputs": [
        {
          "internalType": "string",
          "name": "_username",
          "type": "string"
        },
        {
          "internalType": "string",
          "name": "_password",
          "type": "string"
        }
      ],
      "name": "loginCustomer",
      "outputs": [
        {
          "internalType": "bool",
          "name": "",
          "type": "bool"
        }
      ],
      "payable": false,
      "stateMutability": "view",
      "type": "function"
    },
    {
      "constant": false,
      "inputs": [
        {
          "internalType": "string",
          "name": "_username",
          "type": "string"
        },
        {
          "internalType": "string",
          "name": "_password",
          "type": "string"
        }
      ],
      "name": "signUpCustomer",
      "outputs": [
        {
          "internalType": "bool",
          "name": "",
          "type": "bool"
        }
      ],
      "payable": true,
      "stateMutability": "payable",
      "type": "function"
    },
    {
      "constant": false,
      "inputs": [
        {
          "internalType": "string",
          "name": "_fullname",
          "type": "string"
        },
        {
          "internalType": "string",
          "name": "_fathername",
          "type": "string"
        },
        {
          "internalType": "string",
          "name": "_gender",
          "type": "string"
        },
        {
          "internalType": "string",
          "name": "_dob",
          "type": "string"
        }
      ],
      "name": "buildKyc",
      "outputs": [],
      "payable": false,
      "stateMutability": "nonpayable",
      "type": "function"
    },
    {
      "constant": true,
      "inputs": [
        {
          "internalType": "address",
          "name": "_myaddress",
          "type": "address"
        }
      ],
      "name": "getKyc",
      "outputs": [
        {
          "internalType": "string",
          "name": "",
          "type": "string"
        },
        {
          "internalType": "string",
          "name": "",
          "type": "string"
        },
        {
          "internalType": "string",
          "name": "",
          "type": "string"
        },
        {
          "internalType": "string",
          "name": "",
          "type": "string"
        }
      ],
      "payable": false,
      "stateMutability": "view",
      "type": "function"
    }
  ],
  "bytecode": "0x608060405234801561001057600080fd5b506117c1806100206000396000f3fe6080604052600436106100555760003560e01c806348dec2a71461005a57806349bd7a9114610197578063b30b72cf14610301578063caf8340a1461058e578063f6b144141461079c578063fe7aa153146109aa575b600080fd5b34801561006657600080fd5b506100a96004803603602081101561007d57600080fd5b81019080803573ffffffffffffffffffffffffffffffffffffffff169060200190929190505050610b21565b604051808481526020018060200180602001838103835285818151815260200191508051906020019080838360005b838110156100f35780820151818401526020810190506100d8565b50505050905090810190601f1680156101205780820380516001836020036101000a031916815260200191505b50838103825284818151815260200191508051906020019080838360005b8381101561015957808201518184015260208101905061013e565b50505050905090810190601f1680156101865780820380516001836020036101000a031916815260200191505b509550505050505060405180910390f35b6102e7600480360360408110156101ad57600080fd5b81019080803590602001906401000000008111156101ca57600080fd5b8201836020820111156101dc57600080fd5b803590602001918460018302840111640100000000831117156101fe57600080fd5b91908080601f016020809104026020016040519081016040528093929190818152602001838380828437600081840152601f19601f8201169050808301925050505050505091929192908035906020019064010000000081111561026157600080fd5b82018360208201111561027357600080fd5b8035906020019184600183028401116401000000008311171561029557600080fd5b91908080601f016020809104026020016040519081016040528093929190818152602001838380828437600081840152601f19601f820116905080830192505050505050509192919290505050610c7b565b604051808215151515815260200191505060405180910390f35b34801561030d57600080fd5b5061058c6004803603608081101561032457600080fd5b810190808035906020019064010000000081111561034157600080fd5b82018360208201111561035357600080fd5b8035906020019184600183028401116401000000008311171561037557600080fd5b91908080601f016020809104026020016040519081016040528093929190818152602001838380828437600081840152601f19601f820116905080830192505050505050509192919290803590602001906401000000008111156103d857600080fd5b8201836020820111156103ea57600080fd5b8035906020019184600183028401116401000000008311171561040c57600080fd5b91908080601f016020809104026020016040519081016040528093929190818152602001838380828437600081840152601f19601f8201169050808301925050505050505091929192908035906020019064010000000081111561046f57600080fd5b82018360208201111561048157600080fd5b803590602001918460018302840111640100000000831117156104a357600080fd5b91908080601f016020809104026020016040519081016040528093929190818152602001838380828437600081840152601f19601f8201169050808301925050505050505091929192908035906020019064010000000081111561050657600080fd5b82018360208201111561051857600080fd5b8035906020019184600183028401116401000000008311171561053a57600080fd5b91908080601f016020809104026020016040519081016040528093929190818152602001838380828437600081840152601f19601f820116905080830192505050505050509192919290505050610d31565b005b34801561059a57600080fd5b506105dd600480360360208110156105b157600080fd5b81019080803573ffffffffffffffffffffffffffffffffffffffff169060200190929190505050610e0e565b6040518080602001806020018060200180602001858103855289818151815260200191508051906020019080838360005b8381101561062957808201518184015260208101905061060e565b50505050905090810190601f1680156106565780820380516001836020036101000a031916815260200191505b50858103845288818151815260200191508051906020019080838360005b8381101561068f578082015181840152602081019050610674565b50505050905090810190601f1680156106bc5780820380516001836020036101000a031916815260200191505b50858103835287818151815260200191508051906020019080838360005b838110156106f55780820151818401526020810190506106da565b50505050905090810190601f1680156107225780820380516001836020036101000a031916815260200191505b50858103825286818151815260200191508051906020019080838360005b8381101561075b578082015181840152602081019050610740565b50505050905090810190601f1680156107885780820380516001836020036101000a031916815260200191505b509850505050505050505060405180910390f35b3480156107a857600080fd5b506107eb600480360360208110156107bf57600080fd5b81019080803573ffffffffffffffffffffffffffffffffffffffff16906020019092919050505061119b565b6040518080602001806020018060200180602001858103855289818151815260200191508051906020019080838360005b8381101561083757808201518184015260208101905061081c565b50505050905090810190601f1680156108645780820380516001836020036101000a031916815260200191505b50858103845288818151815260200191508051906020019080838360005b8381101561089d578082015181840152602081019050610882565b50505050905090810190601f1680156108ca5780820380516001836020036101000a031916815260200191505b50858103835287818151815260200191508051906020019080838360005b838110156109035780820151818401526020810190506108e8565b50505050905090810190601f1680156109305780820380516001836020036101000a031916815260200191505b50858103825286818151815260200191508051906020019080838360005b8381101561096957808201518184015260208101905061094e565b50505050905090810190601f1680156109965780820380516001836020036101000a031916815260200191505b509850505050505050505060405180910390f35b3480156109b657600080fd5b50610b07600480360360408110156109cd57600080fd5b81019080803590602001906401000000008111156109ea57600080fd5b8201836020820111156109fc57600080fd5b80359060200191846001830284011164010000000083111715610a1e57600080fd5b91908080601f016020809104026020016040519081016040528093929190818152602001838380828437600081840152601f19601f82011690508083019250505050505050919291929080359060200190640100000000811115610a8157600080fd5b820183602082011115610a9357600080fd5b80359060200191846001830284011164010000000083111715610ab557600080fd5b91908080601f016020809104026020016040519081016040528093929190818152602001838380828437600081840152601f19601f82011690508083019250505050505050919291929050505061142b565b604051808215151515815260200191505060405180910390f35b6000602052806000526040600020600091509050806000015490806001018054600181600116156101000203166002900480601f016020809104026020016040519081016040528092919081815260200182805460018160011615610100020316600290048015610bd35780601f10610ba857610100808354040283529160200191610bd3565b820191906000526020600020905b815481529060010190602001808311610bb657829003601f168201915b505050505090806002018054600181600116156101000203166002900480601f016020809104026020016040519081016040528092919081815260200182805460018160011615610100020316600290048015610c715780601f10610c4657610100808354040283529160200191610c71565b820191906000526020600020905b815481529060010190602001808311610c5457829003601f168201915b5050505050905083565b60006040518060600160405280610c906116a4565b60ff168152602001848152602001838152506000803273ffffffffffffffffffffffffffffffffffffffff1673ffffffffffffffffffffffffffffffffffffffff168152602001908152602001600020600082015181600001556020820151816001019080519060200190610d069291906116e7565b506040820151816002019080519060200190610d239291906116e7565b509050506001905092915050565b604051806080016040528085815260200184815260200183815260200182815250600160003273ffffffffffffffffffffffffffffffffffffffff1673ffffffffffffffffffffffffffffffffffffffff1681526020019081526020016000206000820151816000019080519060200190610dad9291906116e7565b506020820151816001019080519060200190610dca9291906116e7565b506040820151816002019080519060200190610de79291906116e7565b506060820151816003019080519060200190610e049291906116e7565b5090505050505050565b606080606080600160008673ffffffffffffffffffffffffffffffffffffffff1673ffffffffffffffffffffffffffffffffffffffff168152602001908152602001600020600001600160008773ffffffffffffffffffffffffffffffffffffffff1673ffffffffffffffffffffffffffffffffffffffff168152602001908152602001600020600101600160008873ffffffffffffffffffffffffffffffffffffffff1673ffffffffffffffffffffffffffffffffffffffff168152602001908152602001600020600201600160008973ffffffffffffffffffffffffffffffffffffffff1673ffffffffffffffffffffffffffffffffffffffff168152602001908152602001600020600301838054600181600116156101000203166002900480601f016020809104026020016040519081016040528092919081815260200182805460018160011615610100020316600290048015610fb15780601f10610f8657610100808354040283529160200191610fb1565b820191906000526020600020905b815481529060010190602001808311610f9457829003601f168201915b50505050509350828054600181600116156101000203166002900480601f01602080910402602001604051908101604052809291908181526020018280546001816001161561010002031660029004801561104d5780601f106110225761010080835404028352916020019161104d565b820191906000526020600020905b81548152906001019060200180831161103057829003601f168201915b50505050509250818054600181600116156101000203166002900480601f0160208091040260200160405190810160405280929190818152602001828054600181600116156101000203166002900480156110e95780601f106110be576101008083540402835291602001916110e9565b820191906000526020600020905b8154815290600101906020018083116110cc57829003601f168201915b50505050509150808054600181600116156101000203166002900480601f0160208091040260200160405190810160405280929190818152602001828054600181600116156101000203166002900480156111855780601f1061115a57610100808354040283529160200191611185565b820191906000526020600020905b81548152906001019060200180831161116857829003601f168201915b5050505050905093509350935093509193509193565b6001602052806000526040600020600091509050806000018054600181600116156101000203166002900480601f0160208091040260200160405190810160405280929190818152602001828054600181600116156101000203166002900480156112475780601f1061121c57610100808354040283529160200191611247565b820191906000526020600020905b81548152906001019060200180831161122a57829003601f168201915b505050505090806001018054600181600116156101000203166002900480601f0160208091040260200160405190810160405280929190818152602001828054600181600116156101000203166002900480156112e55780601f106112ba576101008083540402835291602001916112e5565b820191906000526020600020905b8154815290600101906020018083116112c857829003601f168201915b505050505090806002018054600181600116156101000203166002900480601f0160208091040260200160405190810160405280929190818152602001828054600181600116156101000203166002900480156113835780601f1061135857610100808354040283529160200191611383565b820191906000526020600020905b81548152906001019060200180831161136657829003601f168201915b505050505090806003018054600181600116156101000203166002900480601f0160208091040260200160405190810160405280929190818152602001828054600181600116156101000203166002900480156114215780601f106113f657610100808354040283529160200191611421565b820191906000526020600020905b81548152906001019060200180831161140457829003601f168201915b5050505050905084565b6000826040516020018082805190602001908083835b602083106114645780518252602082019150602081019050602083039250611441565b6001836020036101000a038019825116818451168082178552505050505050905001915050604051602081830303815290604052805190602001206000803273ffffffffffffffffffffffffffffffffffffffff1673ffffffffffffffffffffffffffffffffffffffff168152602001908152602001600020600101604051602001808280546001816001161561010002031660029004801561153e5780601f1061151c57610100808354040283529182019161153e565b820191906000526020600020905b81548152906001019060200180831161152a575b50509150506040516020818303038152906040528051906020012014801561168f5750816040516020018082805190602001908083835b602083106115985780518252602082019150602081019050602083039250611575565b6001836020036101000a038019825116818451168082178552505050505050905001915050604051602081830303815290604052805190602001206000803273ffffffffffffffffffffffffffffffffffffffff1673ffffffffffffffffffffffffffffffffffffffff16815260200190815260200160002060020160405160200180828054600181600116156101000203166002900480156116725780601f10611650576101008083540402835291820191611672565b820191906000526020600020905b81548152906001019060200180831161165e575b505091505060405160208183030381529060405280519060200120145b1561169d576001905061169e565b5b92915050565b600060fb424460405160200180838152602001828152602001925050506040516020818303038152906040528051906020012060001c816116e157fe5b06905090565b828054600181600116156101000203166002900490600052602060002090601f016020900481019282601f1061172857805160ff1916838001178555611756565b82800160010185558215611756579182015b8281111561175557825182559160200191906001019061173a565b5b5090506117639190611767565b5090565b61178991905b8082111561178557600081600090555060010161176d565b5090565b9056fea265627a7a723158207fef892912f6831d2a2543cbb84f1cbd3ca0ed660320c81740325b772c3d8e7364736f6c63430005100032",
  "source": "pragma solidity ^0.5.16;\n// import \"./Connection.sol\";\n\n\ncontract Bank1 {\n    \n    \n    struct User{\n        uint uid;\n        string username;\n        string password;\n    }\n    \n    struct Kyc{\n        string fullname;\n        string fathername;\n        string gender;\n        string dob;\n    }\n    \n   \n    \n    mapping(address => User) public userDetails;\n    \n    mapping(address => Kyc ) public kycDetails;\n    \n    function random() private view returns (uint8) {\n       return uint8(uint256(keccak256(abi.encodePacked(block.timestamp, block.difficulty)))%251);\n   }\n    \n    function loginCustomer(string memory _username, string memory _password) public view  returns(bool){\n        \n        \n        \n            \n            \n            if( keccak256(abi.encodePacked(userDetails[tx.origin].username)) == keccak256(abi.encodePacked(_username)) && keccak256(abi.encodePacked(userDetails[tx.origin].password)) == keccak256(abi.encodePacked(_password)))\n                return true;\n            \n                    \n    }\n    \n\n    \n    function signUpCustomer(string memory _username, string memory _password) public payable returns(bool) {\n        \n        userDetails[tx.origin] = User(random(),_username,_password);\n            return true;\n        \n    }\n    \n\n    \n     function buildKyc(string memory _fullname, string memory _fathername, string memory _gender, string memory _dob) public {\n         // Section where we store the kyc of the customer in blockchain\n         kycDetails[tx.origin] = Kyc(_fullname,_fathername,_gender,_dob);\n         \n         \n     } \n    \n     function getKyc(address _myaddress) external view returns(string memory, string memory,string memory,string memory){\n         // Section which will be called from outside the function\n         return (kycDetails[_myaddress].fullname, kycDetails[_myaddress].fathername, kycDetails[_myaddress].gender, kycDetails[_myaddress].dob);\n         \n     }\n    \n}\n\n ",
  "sourcePath": "/home/binay/react-dapp/contracts/Bank1.sol",
  "compiler": {
    "name": "solc",
    "version": "0.5.16+commit.9c3226ce.Emscripten.clang"
  },
  "schemaVersion": "3.2.0",
  "updatedAt": "2020-11-18T09:20:02.863Z",
  "networkType": "ethereum",
  "devdoc": {
    "methods": {}
  },
  "userdoc": {
    "methods": {}
  }
}