{
  "contractName": "Bank1",
  "abi": [
    {
      "anonymous": false,
      "inputs": [
        {
          "indexed": false,
          "internalType": "address",
          "name": "contractAddress",
          "type": "address"
        }
      ],
      "name": "NewKycAddress",
      "type": "event"
    },
    {
      "anonymous": false,
      "inputs": [
        {
          "indexed": false,
          "internalType": "address",
          "name": "requesterAddress",
          "type": "address"
        },
        {
          "indexed": false,
          "internalType": "string",
          "name": "bankname",
          "type": "string"
        }
      ],
      "name": "RequestKyc",
      "type": "event"
    },
    {
      "constant": true,
      "inputs": [
        {
          "internalType": "uint256",
          "name": "",
          "type": "uint256"
        }
      ],
      "name": "contracts",
      "outputs": [
        {
          "internalType": "address",
          "name": "",
          "type": "address"
        }
      ],
      "payable": false,
      "stateMutability": "view",
      "type": "function"
    },
    {
      "constant": true,
      "inputs": [],
      "name": "lastContractAddress",
      "outputs": [
        {
          "internalType": "address",
          "name": "",
          "type": "address"
        }
      ],
      "payable": false,
      "stateMutability": "view",
      "type": "function"
    },
    {
      "constant": true,
      "inputs": [],
      "name": "status",
      "outputs": [
        {
          "internalType": "enum Bank1.Status",
          "name": "",
          "type": "uint8"
        }
      ],
      "payable": false,
      "stateMutability": "view",
      "type": "function"
    },
    {
      "constant": true,
      "inputs": [
        {
          "internalType": "address",
          "name": "",
          "type": "address"
        }
      ],
      "name": "userDetails",
      "outputs": [
        {
          "internalType": "uint256",
          "name": "uid",
          "type": "uint256"
        },
        {
          "internalType": "string",
          "name": "username",
          "type": "string"
        },
        {
          "internalType": "string",
          "name": "password",
          "type": "string"
        }
      ],
      "payable": false,
      "stateMutability": "view",
      "type": "function"
    },
    {
      "constant": true,
      "inputs": [
        {
          "internalType": "string",
          "name": "_username",
          "type": "string"
        },
        {
          "internalType": "string",
          "name": "_password",
          "type": "string"
        }
      ],
      "name": "loginCustomer",
      "outputs": [
        {
          "internalType": "bool",
          "name": "",
          "type": "bool"
        }
      ],
      "payable": false,
      "stateMutability": "view",
      "type": "function"
    },
    {
      "constant": false,
      "inputs": [
        {
          "internalType": "string",
          "name": "_username",
          "type": "string"
        },
        {
          "internalType": "string",
          "name": "_password",
          "type": "string"
        }
      ],
      "name": "signUpCustomer",
      "outputs": [
        {
          "internalType": "bool",
          "name": "",
          "type": "bool"
        }
      ],
      "payable": true,
      "stateMutability": "payable",
      "type": "function"
    },
    {
      "constant": false,
      "inputs": [
        {
          "internalType": "string[5]",
          "name": "fi",
          "type": "string[5]"
        },
        {
          "internalType": "string[3]",
          "name": "pa",
          "type": "string[3]"
        },
        {
          "internalType": "string[3]",
          "name": "pi",
          "type": "string[3]"
        },
        {
          "internalType": "string[5]",
          "name": "ii",
          "type": "string[5]"
        }
      ],
      "name": "buildKyc",
      "outputs": [],
      "payable": false,
      "stateMutability": "nonpayable",
      "type": "function"
    },
    {
      "constant": false,
      "inputs": [
        {
          "internalType": "string[5]",
          "name": "fi",
          "type": "string[5]"
        },
        {
          "internalType": "string[3]",
          "name": "pa",
          "type": "string[3]"
        },
        {
          "internalType": "string[3]",
          "name": "pi",
          "type": "string[3]"
        },
        {
          "internalType": "string[5]",
          "name": "ii",
          "type": "string[5]"
        },
        {
          "internalType": "string[4]",
          "name": "picture",
          "type": "string[4]"
        }
      ],
      "name": "KycBlock",
      "outputs": [],
      "payable": true,
      "stateMutability": "payable",
      "type": "function"
    },
    {
      "constant": true,
      "inputs": [
        {
          "internalType": "address",
          "name": "_youraddress",
          "type": "address"
        }
      ],
      "name": "GetKyc",
      "outputs": [
        {
          "internalType": "string[5]",
          "name": "",
          "type": "string[5]"
        },
        {
          "internalType": "string[3]",
          "name": "",
          "type": "string[3]"
        },
        {
          "internalType": "string[3]",
          "name": "",
          "type": "string[3]"
        },
        {
          "internalType": "string[5]",
          "name": "",
          "type": "string[5]"
        },
        {
          "internalType": "string[4]",
          "name": "",
          "type": "string[4]"
        }
      ],
      "payable": false,
      "stateMutability": "view",
      "type": "function"
    }
  ],
  "bytecode": "0x608060405234801561001057600080fd5b50612ad3806100206000396000f3fe608060405260043610620000925760003560e01c806349bd7a91116200006157806349bd7a9114620001815780636e74e6a714620001b75780638ec6c81914620001ff578063bbbe937f146200022d578063fe7aa153146200024d5762000092565b8063200d2ed214620000975780633270973814620000c7578063474da79a14620000f757806348dec2a7146200013b575b600080fd5b348015620000a457600080fd5b50620000af62000291565b604051620000be91906200178f565b60405180910390f35b348015620000d457600080fd5b50620000df620002a4565b604051620000ee9190620016d5565b60405180910390f35b3480156200010457600080fd5b506200012360048036036200011d9190810190620012fc565b620002c9565b604051620001329190620016d5565b60405180910390f35b3480156200014857600080fd5b5062000167600480360362000161919081019062000f8f565b62000306565b6040516200017893929190620017ac565b60405180910390f35b6200019f600480360362000199919081019062001289565b62000468565b604051620001ae919062001772565b60405180910390f35b348015620001c457600080fd5b50620001e36004803603620001dd919081019062000f8f565b62000545565b604051620001f6959493929190620016f2565b60405180910390f35b3480156200020c57600080fd5b506200022b600480360362000225919081019062000fbb565b62000611565b005b6200024b60048036036200024591908101906200108b565b620006e2565b005b3480156200025a57600080fd5b5062000279600480360362000273919081019062001289565b620007c9565b60405162000288919062001772565b60405180910390f35b600260009054906101000a900460ff1681565b6000809054906101000a900473ffffffffffffffffffffffffffffffffffffffff1681565b60018181548110620002d757fe5b906000526020600020016000915054906101000a900473ffffffffffffffffffffffffffffffffffffffff1681565b6003602052806000526040600020600091509050806000015490806001018054600181600116156101000203166002900480601f016020809104026020016040519081016040528092919081815260200182805460018160011615610100020316600290048015620003bc5780601f106200039057610100808354040283529160200191620003bc565b820191906000526020600020905b8154815290600101906020018083116200039e57829003601f168201915b505050505090806002018054600181600116156101000203166002900480601f0160208091040260200160405190810160405280929190818152602001828054600181600116156101000203166002900480156200045e5780601f1062000432576101008083540402835291602001916200045e565b820191906000526020600020905b8154815290600101906020018083116200044057829003601f168201915b5050505050905083565b600060405180606001604052806200047f62000913565b60ff16815260200184815260200183815250600360003373ffffffffffffffffffffffffffffffffffffffff1673ffffffffffffffffffffffffffffffffffffffff168152602001908152602001600020600082015181600001556020820151816001019080519060200190620004f892919062000953565b5060408201518160020190805190602001906200051792919062000953565b50905050600115156200052b8484620007c9565b151514156200053e57600190506200053f565b5b92915050565b6200054f620009da565b6200055962000a02565b6200056362000a02565b6200056d620009da565b6200057762000a2a565b8573ffffffffffffffffffffffffffffffffffffffff166379460dc96040518163ffffffff1660e01b815260040160006040518083038186803b158015620005be57600080fd5b505afa158015620005d3573d6000803e3d6000fd5b505050506040513d6000823e3d601f19601f82011682018060405250620005fe91908101906200118a565b9450945094509450945091939590929450565b604051806080016040528085815260200184815260200183815260200182815250600460003373ffffffffffffffffffffffffffffffffffffffff1673ffffffffffffffffffffffffffffffffffffffff1681526020019081526020016000206000820151816000019060056200068a92919062000a52565b50602082015181600501906003620006a492919062000aac565b50604082015181600801906003620006be92919062000aac565b50606082015181600b01906005620006d892919062000a52565b5090505050505050565b60008585858585604051620006f79062000b06565b62000707959493929190620016f2565b604051809103906000f08015801562000724573d6000803e3d6000fd5b509050806000806101000a81548173ffffffffffffffffffffffffffffffffffffffff021916908373ffffffffffffffffffffffffffffffffffffffff1602179055507f4b564643d2101a70af525c87c762f1966217f897c83afcd3b2de3b8387f585286000809054906101000a900473ffffffffffffffffffffffffffffffffffffffff16604051620007b99190620016d5565b60405180910390a1505050505050565b600082604051602001620007de919062001673565b60405160208183030381529060405280519060200120600360003373ffffffffffffffffffffffffffffffffffffffff1673ffffffffffffffffffffffffffffffffffffffff1681526020019081526020016000206001016040516020016200084891906200168c565b60405160208183030381529060405280519060200120148015620008fc5750816040516020016200087a919062001673565b60405160208183030381529060405280519060200120600360003373ffffffffffffffffffffffffffffffffffffffff1673ffffffffffffffffffffffffffffffffffffffff168152602001908152602001600020600201604051602001620008e491906200168c565b60405160208183030381529060405280519060200120145b156200090c57600190506200090d565b5b92915050565b600060fb42446040516020016200092c929190620016a5565b6040516020818303038152906040528051906020012060001c816200094d57fe5b06905090565b828054600181600116156101000203166002900490600052602060002090601f016020900481019282601f106200099657805160ff1916838001178555620009c7565b82800160010185558215620009c7579182015b82811115620009c6578251825591602001919060010190620009a9565b5b509050620009d6919062000b14565b5090565b6040518060a001604052806005905b6060815260200190600190039081620009e95790505090565b60405180606001604052806003905b606081526020019060019003908162000a115790505090565b60405180608001604052806004905b606081526020019060019003908162000a395790505090565b826005810192821562000a99579160200282015b8281111562000a9857825182908051906020019062000a8792919062000953565b509160200191906001019062000a66565b5b50905062000aa8919062000b3c565b5090565b826003810192821562000af3579160200282015b8281111562000af257825182908051906020019062000ae192919062000953565b509160200191906001019062000ac0565b5b50905062000b02919062000b3c565b5090565b610fb48062001add83390190565b62000b3991905b8082111562000b3557600081600090555060010162000b1b565b5090565b90565b62000b6a91905b8082111562000b66576000818162000b5c919062000b6d565b5060010162000b43565b5090565b90565b50805460018160011615610100020316600290046000825580601f1062000b95575062000bb6565b601f01602090049060005260206000209081019062000bb5919062000b14565b5b50565b60008135905062000bca8162001aa8565b92915050565b600082601f83011262000be257600080fd5b600362000bf962000bf38262001825565b620017f7565b9150818360005b8381101562000c34578135860162000c19888262000e64565b84526020840193506020830192505060018101905062000c00565b5050505092915050565b600082601f83011262000c5057600080fd5b600362000c6762000c618262001825565b620017f7565b9150818360005b8381101562000ca2578151860162000c87888262000ec0565b84526020840193506020830192505060018101905062000c6e565b5050505092915050565b600082601f83011262000cbe57600080fd5b600462000cd562000ccf8262001848565b620017f7565b9150818360005b8381101562000d10578135860162000cf5888262000e64565b84526020840193506020830192505060018101905062000cdc565b5050505092915050565b600082601f83011262000d2c57600080fd5b600462000d4362000d3d8262001848565b620017f7565b9150818360005b8381101562000d7e578151860162000d63888262000ec0565b84526020840193506020830192505060018101905062000d4a565b5050505092915050565b600082601f83011262000d9a57600080fd5b600562000db162000dab826200186b565b620017f7565b9150818360005b8381101562000dec578135860162000dd1888262000e64565b84526020840193506020830192505060018101905062000db8565b5050505092915050565b600082601f83011262000e0857600080fd5b600562000e1f62000e19826200186b565b620017f7565b9150818360005b8381101562000e5a578151860162000e3f888262000ec0565b84526020840193506020830192505060018101905062000e26565b5050505092915050565b600082601f83011262000e7657600080fd5b813562000e8d62000e87826200188e565b620017f7565b9150808252602083016020830185838301111562000eaa57600080fd5b62000eb783828462001a3a565b50505092915050565b600082601f83011262000ed257600080fd5b815162000ee962000ee3826200188e565b620017f7565b9150808252602083016020830185838301111562000f0657600080fd5b62000f1383828462001a49565b50505092915050565b600082601f83011262000f2e57600080fd5b813562000f4562000f3f82620018bb565b620017f7565b9150808252602083016020830185838301111562000f6257600080fd5b62000f6f83828462001a3a565b50505092915050565b60008135905062000f898162001ac2565b92915050565b60006020828403121562000fa257600080fd5b600062000fb28482850162000bb9565b91505092915050565b6000806000806080858703121562000fd257600080fd5b600085013567ffffffffffffffff81111562000fed57600080fd5b62000ffb8782880162000d88565b945050602085013567ffffffffffffffff8111156200101957600080fd5b620010278782880162000bd0565b935050604085013567ffffffffffffffff8111156200104557600080fd5b620010538782880162000bd0565b925050606085013567ffffffffffffffff8111156200107157600080fd5b6200107f8782880162000d88565b91505092959194509250565b600080600080600060a08688031215620010a457600080fd5b600086013567ffffffffffffffff811115620010bf57600080fd5b620010cd8882890162000d88565b955050602086013567ffffffffffffffff811115620010eb57600080fd5b620010f98882890162000bd0565b945050604086013567ffffffffffffffff8111156200111757600080fd5b620011258882890162000bd0565b935050606086013567ffffffffffffffff8111156200114357600080fd5b620011518882890162000d88565b925050608086013567ffffffffffffffff8111156200116f57600080fd5b6200117d8882890162000cac565b9150509295509295909350565b600080600080600060a08688031215620011a357600080fd5b600086015167ffffffffffffffff811115620011be57600080fd5b620011cc8882890162000df6565b955050602086015167ffffffffffffffff811115620011ea57600080fd5b620011f88882890162000c3e565b945050604086015167ffffffffffffffff8111156200121657600080fd5b620012248882890162000c3e565b935050606086015167ffffffffffffffff8111156200124257600080fd5b620012508882890162000df6565b925050608086015167ffffffffffffffff8111156200126e57600080fd5b6200127c8882890162000d1a565b9150509295509295909350565b600080604083850312156200129d57600080fd5b600083013567ffffffffffffffff811115620012b857600080fd5b620012c68582860162000f1c565b925050602083013567ffffffffffffffff811115620012e457600080fd5b620012f28582860162000f1c565b9150509250929050565b6000602082840312156200130f57600080fd5b60006200131f8482850162000f78565b91505092915050565b60006200133683836200152b565b905092915050565b6200134981620019c7565b82525050565b60006200135c826200191b565b62001368818562001979565b9350836020820285016200137c85620018e8565b8060005b85811015620013be57848403895281516200139c858262001328565b9450620013a98362001952565b925060208a0199505060018101905062001380565b50829750879550505050505092915050565b6000620013dd8262001926565b620013e9818562001984565b935083602082028501620013fd85620018f2565b8060005b858110156200143f57848403895281516200141d858262001328565b94506200142a836200195f565b925060208a0199505060018101905062001401565b50829750879550505050505092915050565b60006200145e8262001931565b6200146a81856200198f565b9350836020820285016200147e85620018fc565b8060005b85811015620014c057848403895281516200149e858262001328565b9450620014ab836200196c565b925060208a0199505060018101905062001482565b50829750879550505050505092915050565b620014dd81620019db565b82525050565b620014ee8162001a26565b82525050565b6000620015018262001947565b6200150d8185620019bc565b93506200151f81856020860162001a49565b80840191505092915050565b600062001538826200193c565b6200154481856200199a565b93506200155681856020860162001a49565b620015618162001a89565b840191505092915050565b600062001579826200193c565b620015858185620019ab565b93506200159781856020860162001a49565b620015a28162001a89565b840191505092915050565b600081546001811660008114620015cd5760018114620015f5576200163f565b607f6002830416620015e08187620019bc565b955060ff19831686528086019350506200163f565b60028204620016058187620019bc565b9550620016128562001906565b60005b82811015620016365781548189015260018201915060208101905062001615565b82880195505050505b505092915050565b620016528162001a1c565b82525050565b6200166d620016678262001a1c565b62001a7f565b82525050565b6000620016818284620014f4565b915081905092915050565b60006200169a8284620015ad565b915081905092915050565b6000620016b3828562001658565b602082019150620016c5828462001658565b6020820191508190509392505050565b6000602082019050620016ec60008301846200133e565b92915050565b600060a08201905081810360008301526200170e818862001451565b905081810360208301526200172481876200134f565b905081810360408301526200173a81866200134f565b9050818103606083015262001750818562001451565b90508181036080830152620017668184620013d0565b90509695505050505050565b6000602082019050620017896000830184620014d2565b92915050565b6000602082019050620017a66000830184620014e3565b92915050565b6000606082019050620017c3600083018662001647565b8181036020830152620017d781856200156c565b90508181036040830152620017ed81846200156c565b9050949350505050565b6000604051905081810181811067ffffffffffffffff821117156200181b57600080fd5b8060405250919050565b600067ffffffffffffffff8211156200183d57600080fd5b602082029050919050565b600067ffffffffffffffff8211156200186057600080fd5b602082029050919050565b600067ffffffffffffffff8211156200188357600080fd5b602082029050919050565b600067ffffffffffffffff821115620018a657600080fd5b601f19601f8301169050602081019050919050565b600067ffffffffffffffff821115620018d357600080fd5b601f19601f8301169050602081019050919050565b6000819050919050565b6000819050919050565b6000819050919050565b60008190508160005260206000209050919050565b600060039050919050565b600060049050919050565b600060059050919050565b600081519050919050565b600081519050919050565b6000602082019050919050565b6000602082019050919050565b6000602082019050919050565b600081905092915050565b600081905092915050565b600081905092915050565b600082825260208201905092915050565b600082825260208201905092915050565b600081905092915050565b6000620019d482620019fc565b9050919050565b60008115159050919050565b6000819050620019f78262001a9a565b919050565b600073ffffffffffffffffffffffffffffffffffffffff82169050919050565b6000819050919050565b600062001a3382620019e7565b9050919050565b82818337600083830152505050565b60005b8381101562001a6957808201518184015260208101905062001a4c565b8381111562001a79576000848401525b50505050565b6000819050919050565b6000601f19601f8301169050919050565b6003811062001aa557fe5b50565b62001ab381620019c7565b811462001abf57600080fd5b50565b62001acd8162001a1c565b811462001ad957600080fd5b5056fe608060405260405162000fb438038062000fb48339818101604052620000299190810190620004dc565b846000806001815260200190815260200160002060000190600562000050929190620000fc565b5083600080600181526020019081526020016000206005019060036200007892919062000156565b508260008060018152602001908152602001600020600801906003620000a092919062000156565b508160008060018152602001908152602001600020600b01906005620000c8929190620000fc565b508060008060018152602001908152602001600020601001906004620000f0929190620001b0565b505050505050620006d5565b826005810192821562000143579160200282015b8281111562000142578251829080519060200190620001319291906200020a565b509160200191906001019062000110565b5b50905062000152919062000291565b5090565b82600381019282156200019d579160200282015b828111156200019c5782518290805190602001906200018b9291906200020a565b50916020019190600101906200016a565b5b509050620001ac919062000291565b5090565b8260048101928215620001f7579160200282015b82811115620001f6578251829080519060200190620001e59291906200020a565b5091602001919060010190620001c4565b5b50905062000206919062000291565b5090565b828054600181600116156101000203166002900490600052602060002090601f016020900481019282601f106200024d57805160ff19168380011785556200027e565b828001600101855582156200027e579182015b828111156200027d57825182559160200191906001019062000260565b5b5090506200028d9190620002c2565b5090565b620002bf91905b80821115620002bb5760008181620002b19190620002ea565b5060010162000298565b5090565b90565b620002e791905b80821115620002e3576000816000905550600101620002c9565b5090565b90565b50805460018160011615610100020316600290046000825580601f1062000312575062000333565b601f016020900490600052602060002090810190620003329190620002c2565b5b50565b600082601f8301126200034857600080fd5b60036200035f620003598262000609565b620005db565b9150818360005b838110156200039a57815186016200037f888262000480565b84526020840193506020830192505060018101905062000366565b5050505092915050565b600082601f830112620003b657600080fd5b6004620003cd620003c7826200062c565b620005db565b9150818360005b83811015620004085781518601620003ed888262000480565b845260208401935060208301925050600181019050620003d4565b5050505092915050565b600082601f8301126200042457600080fd5b60056200043b62000435826200064f565b620005db565b9150818360005b838110156200047657815186016200045b888262000480565b84526020840193506020830192505060018101905062000442565b5050505092915050565b600082601f8301126200049257600080fd5b8151620004a9620004a38262000672565b620005db565b91508082526020830160208301858383011115620004c657600080fd5b620004d38382846200069f565b50505092915050565b600080600080600060a08688031215620004f557600080fd5b600086015167ffffffffffffffff8111156200051057600080fd5b6200051e8882890162000412565b955050602086015167ffffffffffffffff8111156200053c57600080fd5b6200054a8882890162000336565b945050604086015167ffffffffffffffff8111156200056857600080fd5b620005768882890162000336565b935050606086015167ffffffffffffffff8111156200059457600080fd5b620005a28882890162000412565b925050608086015167ffffffffffffffff811115620005c057600080fd5b620005ce88828901620003a4565b9150509295509295909350565b6000604051905081810181811067ffffffffffffffff82111715620005ff57600080fd5b8060405250919050565b600067ffffffffffffffff8211156200062157600080fd5b602082029050919050565b600067ffffffffffffffff8211156200064457600080fd5b602082029050919050565b600067ffffffffffffffff8211156200066757600080fd5b602082029050919050565b600067ffffffffffffffff8211156200068a57600080fd5b601f19601f8301169050602081019050919050565b60005b83811015620006bf578082015181840152602081019050620006a2565b83811115620006cf576000848401525b50505050565b6108cf80620006e56000396000f3fe608060405234801561001057600080fd5b506004361061002b5760003560e01c806379460dc914610030575b600080fd5b610038610052565b60405161004995949392919061072f565b60405180910390f35b61005a61050e565b610062610535565b61006a610535565b61007261050e565b61007a61055c565b60008060018152602001908152602001600020600001600080600181526020019081526020016000206005016000806001815260200190815260200160002060080160008060018152602001908152602001600020600b016000806001815260200190815260200160002060100184600580602002604051908101604052809291906000905b828210156101b3578382018054600181600116156101000203166002900480601f01602080910402602001604051908101604052809291908181526020018280546001816001161561010002031660029004801561019f5780601f106101745761010080835404028352916020019161019f565b820191906000526020600020905b81548152906001019060200180831161018257829003601f168201915b505050505081526020019060010190610100565b50505050945083600380602002604051908101604052809291906000905b82821015610284578382018054600181600116156101000203166002900480601f0160208091040260200160405190810160405280929190818152602001828054600181600116156101000203166002900480156102705780601f1061024557610100808354040283529160200191610270565b820191906000526020600020905b81548152906001019060200180831161025357829003601f168201915b5050505050815260200190600101906101d1565b50505050935082600380602002604051908101604052809291906000905b82821015610355578382018054600181600116156101000203166002900480601f0160208091040260200160405190810160405280929190818152602001828054600181600116156101000203166002900480156103415780601f1061031657610100808354040283529160200191610341565b820191906000526020600020905b81548152906001019060200180831161032457829003601f168201915b5050505050815260200190600101906102a2565b50505050925081600580602002604051908101604052809291906000905b82821015610426578382018054600181600116156101000203166002900480601f0160208091040260200160405190810160405280929190818152602001828054600181600116156101000203166002900480156104125780601f106103e757610100808354040283529160200191610412565b820191906000526020600020905b8154815290600101906020018083116103f557829003601f168201915b505050505081526020019060010190610373565b50505050915080600480602002604051908101604052809291906000905b828210156104f7578382018054600181600116156101000203166002900480601f0160208091040260200160405190810160405280929190818152602001828054600181600116156101000203166002900480156104e35780601f106104b8576101008083540402835291602001916104e3565b820191906000526020600020905b8154815290600101906020018083116104c657829003601f168201915b505050505081526020019060010190610444565b505050509050945094509450945094509091929394565b6040518060a001604052806005905b606081526020019060019003908161051d5790505090565b60405180606001604052806003905b60608152602001906001900390816105445790505090565b60405180608001604052806004905b606081526020019060019003908161056b5790505090565b600061058f83836106f6565b905092915050565b60006105a2826107c3565b6105ac8185610816565b9350836020820285016105be856107a5565b8060005b858110156105fa57848403895281516105db8582610583565b94506105e6836107ef565b925060208a019950506001810190506105c2565b50829750879550505050505092915050565b6000610617826107ce565b6106218185610821565b935083602082028501610633856107af565b8060005b8581101561066f57848403895281516106508582610583565b945061065b836107fc565b925060208a01995050600181019050610637565b50829750879550505050505092915050565b600061068c826107d9565b610696818561082c565b9350836020820285016106a8856107b9565b8060005b858110156106e457848403895281516106c58582610583565b94506106d083610809565b925060208a019950506001810190506106ac565b50829750879550505050505092915050565b6000610701826107e4565b61070b8185610837565b935061071b818560208601610848565b6107248161087b565b840191505092915050565b600060a08201905081810360008301526107498188610681565b9050818103602083015261075d8187610597565b905081810360408301526107718186610597565b905081810360608301526107858185610681565b90508181036080830152610799818461060c565b90509695505050505050565b6000819050919050565b6000819050919050565b6000819050919050565b600060039050919050565b600060049050919050565b600060059050919050565b600081519050919050565b6000602082019050919050565b6000602082019050919050565b6000602082019050919050565b600081905092915050565b600081905092915050565b600081905092915050565b600082825260208201905092915050565b60005b8381101561086657808201518184015260208101905061084b565b83811115610875576000848401525b50505050565b6000601f19601f830116905091905056fea365627a7a72315820562b0417fb9af9be177d5397fedc02d9d00085093107812fabf87a3543194d406c6578706572696d656e74616cf564736f6c63430005100040a365627a7a723158206fce694108d52fc2b3caca8b57e11ac209598a575e0d16a55f4a114e7905a6ef6c6578706572696d656e74616cf564736f6c63430005100040",
  "source": "pragma solidity ^0.5.16;\npragma experimental ABIEncoderV2;\n\ncontract Bank1 {\n    \n    \n    struct User{\n        uint uid;\n        string username;\n        string password;\n    }\n    \n    struct Kyc{\n        string[5] familyinfo;\n        string[3] personaladd;\n        string[3] personalinfo;\n        string[5] identityinfo;\n    }\n    \n    \n    enum Status {\n        Idle,\n        Accept,\n        Decline\n    }\n    \n    \n    event RequestKyc (\n        address requesterAddress,\n        string bankname\n        );\n        \n    event NewKycAddress (\n        address contractAddress\n        );\n\n    address public lastContractAddress;\n    \n    address[] public contracts;\n        \n    Status public status;\n\n    \n   \n    mapping(address => User) public userDetails;\n    \n    mapping(address => Kyc ) private kycDetails;\n    \n    \n    function random() private view returns (uint8) {\n       return uint8(uint256(keccak256(abi.encodePacked(block.timestamp, block.difficulty)))%251);\n   }\n    \n    function loginCustomer(string memory _username, string memory _password) public view  returns(bool){\n        \n        \n        \n            \n            \n            if( keccak256(abi.encodePacked(userDetails[msg.sender].username)) == keccak256(abi.encodePacked(_username)) && keccak256(abi.encodePacked(userDetails[msg.sender].password)) == keccak256(abi.encodePacked(_password))){\n                return true;\n            }\n                    \n    }\n    \n\n    \n    function signUpCustomer(string memory _username, string memory _password) public payable returns(bool) {\n        \n        userDetails[msg.sender] = User(random(),_username,_password);\n        \n        \n        if(loginCustomer(_username,_password) == true)\n            return true;\n        \n    }\n    \n    \n    function buildKyc(string[5] memory fi, string[3] memory pa, string[3] memory pi, string[5] memory ii) public {\n         // Section where we store the kyc of the customer in blockchain\n\n        \n         kycDetails[msg.sender] = Kyc(fi,pa,pi,ii);\n        \n             \n    } \n     \n\n\n    function KycBlock (string[5] memory fi, string[3] memory pa, string[3] memory pi, string[5] memory ii, string[4] memory picture) public payable{\n     KYC kyc = new KYC(fi, pa, pi, ii, picture);\n    \n        lastContractAddress = address(kyc);\n        emit NewKycAddress(lastContractAddress);\n    }\n\n    // function KycBlock() public payable{\n        \n        \n    //     KYC kyc = new KYC(familyinfo,kycDetails[msg.sender].personaladd,kycDetails[msg.sender].personalinfo,kycDetails[msg.sender].identityinfo);\n        \n    //     lastContractAddress = address(kyc);\n    //     emit NewKycAddress(lastContractAddress);\n        \n    // } \n     \n    function GetKyc(address _youraddress) public view returns(string[5] memory, string[3] memory, string[3] memory, string[5] memory, string[4] memory){\n        \n        return KYC(_youraddress).giveKyc();\n    }\n\n\n\n}\n\n\ncontract KYC {\n    \n    \n        \n    struct Kyc{\n        string[5] _familyinfo;\n        string[3] _personaladd;\n        string[3] _personalinfo;\n        string[5] _identityinfo;\n        string[4] _picture;\n    }\n    \n    mapping( uint => Kyc ) private newKyc;\n    \n    constructor(string[5] memory fai, string[3] memory padd, string[3] memory pin, string[5] memory iinf, string[4] memory picture) public payable {\n        newKyc[1]._familyinfo = fai;\n        newKyc[1]._personaladd = padd;\n        newKyc[1]._personalinfo = pin;\n        newKyc[1]._identityinfo = iinf;\n        newKyc[1]._picture = picture;\n        \n    }\n    \n    function giveKyc() public view returns(string[5] memory, string[3] memory, string[3] memory, string[5] memory, string[4] memory){\n\n        return(newKyc[1]._familyinfo,newKyc[1]._personaladd,newKyc[1]._personalinfo,newKyc[1]._identityinfo, newKyc[1]._picture);\n    }\n    \n}\n\n\n",
  "sourcePath": "/home/elnino/Desktop/ReactBlockchain__dapp/contracts/Bank1.sol",
  "compiler": {
    "name": "solc",
    "version": "0.5.16+commit.9c3226ce.Emscripten.clang"
  },
  "schemaVersion": "3.3.4",
  "updatedAt": "2021-03-02T19:02:34.287Z",
  "networkType": "ethereum",
  "devdoc": {
    "methods": {}
  },
  "userdoc": {
    "methods": {}
  }
}