{
  "contractName": "Bank1",
  "abi": [
    {
      "anonymous": false,
      "inputs": [
        {
          "indexed": false,
          "internalType": "address",
          "name": "contractAddress",
          "type": "address"
        }
      ],
      "name": "NewKycAddress",
      "type": "event"
    },
    {
      "anonymous": false,
      "inputs": [
        {
          "indexed": false,
          "internalType": "address",
          "name": "requesterAddress",
          "type": "address"
        },
        {
          "indexed": false,
          "internalType": "string",
          "name": "bankname",
          "type": "string"
        }
      ],
      "name": "RequestKyc",
      "type": "event"
    },
    {
      "constant": true,
      "inputs": [
        {
          "internalType": "uint256",
          "name": "",
          "type": "uint256"
        }
      ],
      "name": "contracts",
      "outputs": [
        {
          "internalType": "address",
          "name": "",
          "type": "address"
        }
      ],
      "payable": false,
      "stateMutability": "view",
      "type": "function"
    },
    {
      "constant": true,
      "inputs": [
        {
          "internalType": "address",
          "name": "",
          "type": "address"
        }
      ],
      "name": "kycDetails",
      "outputs": [
        {
          "internalType": "string",
          "name": "fullname",
          "type": "string"
        },
        {
          "internalType": "string",
          "name": "fathername",
          "type": "string"
        },
        {
          "internalType": "string",
          "name": "gender",
          "type": "string"
        },
        {
          "internalType": "string",
          "name": "dob",
          "type": "string"
        }
      ],
      "payable": false,
      "stateMutability": "view",
      "type": "function"
    },
    {
      "constant": true,
      "inputs": [],
      "name": "lastContractAddress",
      "outputs": [
        {
          "internalType": "address",
          "name": "",
          "type": "address"
        }
      ],
      "payable": false,
      "stateMutability": "view",
      "type": "function"
    },
    {
      "constant": true,
      "inputs": [],
      "name": "status",
      "outputs": [
        {
          "internalType": "enum Bank1.Status",
          "name": "",
          "type": "uint8"
        }
      ],
      "payable": false,
      "stateMutability": "view",
      "type": "function"
    },
    {
      "constant": true,
      "inputs": [
        {
          "internalType": "address",
          "name": "",
          "type": "address"
        }
      ],
      "name": "userDetails",
      "outputs": [
        {
          "internalType": "uint256",
          "name": "uid",
          "type": "uint256"
        },
        {
          "internalType": "string",
          "name": "username",
          "type": "string"
        },
        {
          "internalType": "string",
          "name": "password",
          "type": "string"
        }
      ],
      "payable": false,
      "stateMutability": "view",
      "type": "function"
    },
    {
      "constant": true,
      "inputs": [
        {
          "internalType": "string",
          "name": "_username",
          "type": "string"
        },
        {
          "internalType": "string",
          "name": "_password",
          "type": "string"
        }
      ],
      "name": "loginCustomer",
      "outputs": [
        {
          "internalType": "bool",
          "name": "",
          "type": "bool"
        }
      ],
      "payable": false,
      "stateMutability": "view",
      "type": "function"
    },
    {
      "constant": false,
      "inputs": [
        {
          "internalType": "string",
          "name": "_username",
          "type": "string"
        },
        {
          "internalType": "string",
          "name": "_password",
          "type": "string"
        }
      ],
      "name": "signUpCustomer",
      "outputs": [
        {
          "internalType": "bool",
          "name": "",
          "type": "bool"
        }
      ],
      "payable": true,
      "stateMutability": "payable",
      "type": "function"
    },
    {
      "constant": false,
      "inputs": [
        {
          "internalType": "string",
          "name": "_fullname",
          "type": "string"
        },
        {
          "internalType": "string",
          "name": "_fathername",
          "type": "string"
        },
        {
          "internalType": "string",
          "name": "_gender",
          "type": "string"
        },
        {
          "internalType": "string",
          "name": "_dob",
          "type": "string"
        }
      ],
      "name": "buildKyc",
      "outputs": [],
      "payable": false,
      "stateMutability": "nonpayable",
      "type": "function"
    },
    {
      "constant": false,
      "inputs": [],
      "name": "KycBlock",
      "outputs": [],
      "payable": true,
      "stateMutability": "payable",
      "type": "function"
    },
    {
      "constant": true,
      "inputs": [
        {
          "internalType": "address",
          "name": "_youraddress",
          "type": "address"
        }
      ],
      "name": "GetKyc",
      "outputs": [
        {
          "internalType": "string",
          "name": "_fullname",
          "type": "string"
        },
        {
          "internalType": "string",
          "name": "_fathername",
          "type": "string"
        },
        {
          "internalType": "string",
          "name": "_dob",
          "type": "string"
        },
        {
          "internalType": "string",
          "name": "_gender",
          "type": "string"
        }
      ],
      "payable": false,
      "stateMutability": "view",
      "type": "function"
    }
  ],
  "bytecode": "0x608060405234801561001057600080fd5b50612cc8806100206000396000f3fe6080604052600436106200009e5760003560e01c80636e74e6a711620000615780636e74e6a71462000473578063b30b72cf1462000691578063f396c835146200092e578063f6b14414146200093a578063fe7aa1531462000b58576200009e565b8063200d2ed214620000a35780633270973814620000e0578063474da79a146200013a57806348dec2a714620001b957806349bd7a911462000300575b600080fd5b348015620000b057600080fd5b50620000bb62000cd9565b60405180826002811115620000cc57fe5b60ff16815260200191505060405180910390f35b348015620000ed57600080fd5b50620000f862000cec565b604051808273ffffffffffffffffffffffffffffffffffffffff1673ffffffffffffffffffffffffffffffffffffffff16815260200191505060405180910390f35b3480156200014757600080fd5b5062000177600480360360208110156200016057600080fd5b810190808035906020019092919050505062000d11565b604051808273ffffffffffffffffffffffffffffffffffffffff1673ffffffffffffffffffffffffffffffffffffffff16815260200191505060405180910390f35b348015620001c657600080fd5b506200020c60048036036020811015620001df57600080fd5b81019080803573ffffffffffffffffffffffffffffffffffffffff16906020019092919050505062000d4e565b604051808481526020018060200180602001838103835285818151815260200191508051906020019080838360005b83811015620002585780820151818401526020810190506200023b565b50505050905090810190601f168015620002865780820380516001836020036101000a031916815260200191505b50838103825284818151815260200191508051906020019080838360005b83811015620002c1578082015181840152602081019050620002a4565b50505050905090810190601f168015620002ef5780820380516001836020036101000a031916815260200191505b509550505050505060405180910390f35b62000459600480360360408110156200031857600080fd5b81019080803590602001906401000000008111156200033657600080fd5b8201836020820111156200034957600080fd5b803590602001918460018302840111640100000000831117156200036c57600080fd5b91908080601f016020809104026020016040519081016040528093929190818152602001838380828437600081840152601f19601f82011690508083019250505050505050919291929080359060200190640100000000811115620003d057600080fd5b820183602082011115620003e357600080fd5b803590602001918460018302840111640100000000831117156200040657600080fd5b91908080601f016020809104026020016040519081016040528093929190818152602001838380828437600081840152601f19601f82011690508083019250505050505050919291929050505062000eb0565b604051808215151515815260200191505060405180910390f35b3480156200048057600080fd5b50620004c6600480360360208110156200049957600080fd5b81019080803573ffffffffffffffffffffffffffffffffffffffff16906020019092919050505062000f8d565b6040518080602001806020018060200180602001858103855289818151815260200191508051906020019080838360005b8381101562000514578082015181840152602081019050620004f7565b50505050905090810190601f168015620005425780820380516001836020036101000a031916815260200191505b50858103845288818151815260200191508051906020019080838360005b838110156200057d57808201518184015260208101905062000560565b50505050905090810190601f168015620005ab5780820380516001836020036101000a031916815260200191505b50858103835287818151815260200191508051906020019080838360005b83811015620005e6578082015181840152602081019050620005c9565b50505050905090810190601f168015620006145780820380516001836020036101000a031916815260200191505b50858103825286818151815260200191508051906020019080838360005b838110156200064f57808201518184015260208101905062000632565b50505050905090810190601f1680156200067d5780820380516001836020036101000a031916815260200191505b509850505050505050505060405180910390f35b3480156200069e57600080fd5b506200092c60048036036080811015620006b757600080fd5b8101908080359060200190640100000000811115620006d557600080fd5b820183602082011115620006e857600080fd5b803590602001918460018302840111640100000000831117156200070b57600080fd5b91908080601f016020809104026020016040519081016040528093929190818152602001838380828437600081840152601f19601f820116905080830192505050505050509192919290803590602001906401000000008111156200076f57600080fd5b8201836020820111156200078257600080fd5b80359060200191846001830284011164010000000083111715620007a557600080fd5b91908080601f016020809104026020016040519081016040528093929190818152602001838380828437600081840152601f19601f820116905080830192505050505050509192919290803590602001906401000000008111156200080957600080fd5b8201836020820111156200081c57600080fd5b803590602001918460018302840111640100000000831117156200083f57600080fd5b91908080601f016020809104026020016040519081016040528093929190818152602001838380828437600081840152601f19601f82011690508083019250505050505050919291929080359060200190640100000000811115620008a357600080fd5b820183602082011115620008b657600080fd5b80359060200191846001830284011164010000000083111715620008d957600080fd5b91908080601f016020809104026020016040519081016040528093929190818152602001838380828437600081840152601f19601f82011690508083019250505050505050919291929050505062001321565b005b6200093862001406565b005b3480156200094757600080fd5b506200098d600480360360208110156200096057600080fd5b81019080803573ffffffffffffffffffffffffffffffffffffffff1690602001909291905050506200183c565b6040518080602001806020018060200180602001858103855289818151815260200191508051906020019080838360005b83811015620009db578082015181840152602081019050620009be565b50505050905090810190601f16801562000a095780820380516001836020036101000a031916815260200191505b50858103845288818151815260200191508051906020019080838360005b8381101562000a4457808201518184015260208101905062000a27565b50505050905090810190601f16801562000a725780820380516001836020036101000a031916815260200191505b50858103835287818151815260200191508051906020019080838360005b8381101562000aad57808201518184015260208101905062000a90565b50505050905090810190601f16801562000adb5780820380516001836020036101000a031916815260200191505b50858103825286818151815260200191508051906020019080838360005b8381101562000b1657808201518184015260208101905062000af9565b50505050905090810190601f16801562000b445780820380516001836020036101000a031916815260200191505b509850505050505050505060405180910390f35b34801562000b6557600080fd5b5062000cbf6004803603604081101562000b7e57600080fd5b810190808035906020019064010000000081111562000b9c57600080fd5b82018360208201111562000baf57600080fd5b8035906020019184600183028401116401000000008311171562000bd257600080fd5b91908080601f016020809104026020016040519081016040528093929190818152602001838380828437600081840152601f19601f8201169050808301925050505050505091929192908035906020019064010000000081111562000c3657600080fd5b82018360208201111562000c4957600080fd5b8035906020019184600183028401116401000000008311171562000c6c57600080fd5b91908080601f016020809104026020016040519081016040528093929190818152602001838380828437600081840152601f19601f82011690508083019250505050505050919291929050505062001adc565b604051808215151515815260200191505060405180910390f35b600260009054906101000a900460ff1681565b6000809054906101000a900473ffffffffffffffffffffffffffffffffffffffff1681565b6001818154811062000d1f57fe5b906000526020600020016000915054906101000a900473ffffffffffffffffffffffffffffffffffffffff1681565b6003602052806000526040600020600091509050806000015490806001018054600181600116156101000203166002900480601f01602080910402602001604051908101604052809291908181526020018280546001816001161561010002031660029004801562000e045780601f1062000dd85761010080835404028352916020019162000e04565b820191906000526020600020905b81548152906001019060200180831162000de657829003601f168201915b505050505090806002018054600181600116156101000203166002900480601f01602080910402602001604051908101604052809291908181526020018280546001816001161561010002031660029004801562000ea65780601f1062000e7a5761010080835404028352916020019162000ea6565b820191906000526020600020905b81548152906001019060200180831162000e8857829003601f168201915b5050505050905083565b6000604051806060016040528062000ec762001d66565b60ff16815260200184815260200183815250600360003373ffffffffffffffffffffffffffffffffffffffff1673ffffffffffffffffffffffffffffffffffffffff16815260200190815260200160002060008201518160000155602082015181600101908051906020019062000f4092919062001daa565b50604082015181600201908051906020019062000f5f92919062001daa565b509050506001151562000f73848462001adc565b1515141562000f86576001905062000f87565b5b92915050565b6060806060808473ffffffffffffffffffffffffffffffffffffffff166379460dc96040518163ffffffff1660e01b815260040160006040518083038186803b15801562000fda57600080fd5b505afa15801562000fef573d6000803e3d6000fd5b505050506040513d6000823e3d601f19601f8201168201806040525060808110156200101a57600080fd5b81019080805160405193929190846401000000008211156200103b57600080fd5b838201915060208201858111156200105257600080fd5b82518660018202830111640100000000821117156200107057600080fd5b8083526020830192505050908051906020019080838360005b83811015620010a657808201518184015260208101905062001089565b50505050905090810190601f168015620010d45780820380516001836020036101000a031916815260200191505b5060405260200180516040519392919084640100000000821115620010f857600080fd5b838201915060208201858111156200110f57600080fd5b82518660018202830111640100000000821117156200112d57600080fd5b8083526020830192505050908051906020019080838360005b838110156200116357808201518184015260208101905062001146565b50505050905090810190601f168015620011915780820380516001836020036101000a031916815260200191505b5060405260200180516040519392919084640100000000821115620011b557600080fd5b83820191506020820185811115620011cc57600080fd5b8251866001820283011164010000000082111715620011ea57600080fd5b8083526020830192505050908051906020019080838360005b838110156200122057808201518184015260208101905062001203565b50505050905090810190601f1680156200124e5780820380516001836020036101000a031916815260200191505b50604052602001805160405193929190846401000000008211156200127257600080fd5b838201915060208201858111156200128957600080fd5b8251866001820283011164010000000082111715620012a757600080fd5b8083526020830192505050908051906020019080838360005b83811015620012dd578082015181840152602081019050620012c0565b50505050905090810190601f1680156200130b5780820380516001836020036101000a031916815260200191505b5060405250505093509350935093509193509193565b604051806080016040528085815260200184815260200183815260200182815250600460003373ffffffffffffffffffffffffffffffffffffffff1673ffffffffffffffffffffffffffffffffffffffff16815260200190815260200160002060008201518160000190805190602001906200139f92919062001daa565b506020820151816001019080519060200190620013be92919062001daa565b506040820151816002019080519060200190620013dd92919062001daa565b506060820151816003019080519060200190620013fc92919062001daa565b5090505050505050565b6000600460003373ffffffffffffffffffffffffffffffffffffffff1673ffffffffffffffffffffffffffffffffffffffff168152602001908152602001600020600001600460003373ffffffffffffffffffffffffffffffffffffffff1673ffffffffffffffffffffffffffffffffffffffff168152602001908152602001600020600101600460003373ffffffffffffffffffffffffffffffffffffffff1673ffffffffffffffffffffffffffffffffffffffff168152602001908152602001600020600201600460003373ffffffffffffffffffffffffffffffffffffffff1673ffffffffffffffffffffffffffffffffffffffff1681526020019081526020016000206003016040516200151e9062001e31565b8080602001806020018060200180602001858103855289818154600181600116156101000203166002900481526020019150805460018160011615610100020316600290048015620015b45780601f106200158857610100808354040283529160200191620015b4565b820191906000526020600020905b8154815290600101906020018083116200159657829003601f168201915b50508581038452888181546001816001161561010002031660029004815260200191508054600181600116156101000203166002900480156200163b5780601f106200160f576101008083540402835291602001916200163b565b820191906000526020600020905b8154815290600101906020018083116200161d57829003601f168201915b5050858103835287818154600181600116156101000203166002900481526020019150805460018160011615610100020316600290048015620016c25780601f106200169657610100808354040283529160200191620016c2565b820191906000526020600020905b815481529060010190602001808311620016a457829003601f168201915b5050858103825286818154600181600116156101000203166002900481526020019150805460018160011615610100020316600290048015620017495780601f106200171d5761010080835404028352916020019162001749565b820191906000526020600020905b8154815290600101906020018083116200172b57829003601f168201915b505098505050505050505050604051809103906000f08015801562001772573d6000803e3d6000fd5b509050806000806101000a81548173ffffffffffffffffffffffffffffffffffffffff021916908373ffffffffffffffffffffffffffffffffffffffff1602179055507f4b564643d2101a70af525c87c762f1966217f897c83afcd3b2de3b8387f585286000809054906101000a900473ffffffffffffffffffffffffffffffffffffffff16604051808273ffffffffffffffffffffffffffffffffffffffff1673ffffffffffffffffffffffffffffffffffffffff16815260200191505060405180910390a150565b6004602052806000526040600020600091509050806000018054600181600116156101000203166002900480601f016020809104026020016040519081016040528092919081815260200182805460018160011615610100020316600290048015620018ec5780601f10620018c057610100808354040283529160200191620018ec565b820191906000526020600020905b815481529060010190602001808311620018ce57829003601f168201915b505050505090806001018054600181600116156101000203166002900480601f0160208091040260200160405190810160405280929190818152602001828054600181600116156101000203166002900480156200198e5780601f1062001962576101008083540402835291602001916200198e565b820191906000526020600020905b8154815290600101906020018083116200197057829003601f168201915b505050505090806002018054600181600116156101000203166002900480601f01602080910402602001604051908101604052809291908181526020018280546001816001161561010002031660029004801562001a305780601f1062001a045761010080835404028352916020019162001a30565b820191906000526020600020905b81548152906001019060200180831162001a1257829003601f168201915b505050505090806003018054600181600116156101000203166002900480601f01602080910402602001604051908101604052809291908181526020018280546001816001161561010002031660029004801562001ad25780601f1062001aa65761010080835404028352916020019162001ad2565b820191906000526020600020905b81548152906001019060200180831162001ab457829003601f168201915b5050505050905084565b6000826040516020018082805190602001908083835b6020831062001b17578051825260208201915060208101905060208303925062001af2565b6001836020036101000a03801982511681845116808217855250505050505090500191505060405160208183030381529060405280519060200120600360003373ffffffffffffffffffffffffffffffffffffffff1673ffffffffffffffffffffffffffffffffffffffff168152602001908152602001600020600101604051602001808280546001816001161561010002031660029004801562001bf65780601f1062001bd357610100808354040283529182019162001bf6565b820191906000526020600020905b81548152906001019060200180831162001be1575b50509150506040516020818303038152906040528051906020012014801562001d4f5750816040516020018082805190602001908083835b6020831062001c53578051825260208201915060208101905060208303925062001c2e565b6001836020036101000a03801982511681845116808217855250505050505090500191505060405160208183030381529060405280519060200120600360003373ffffffffffffffffffffffffffffffffffffffff1673ffffffffffffffffffffffffffffffffffffffff168152602001908152602001600020600201604051602001808280546001816001161561010002031660029004801562001d325780601f1062001d0f57610100808354040283529182019162001d32565b820191906000526020600020905b81548152906001019060200180831162001d1d575b505091505060405160208183030381529060405280519060200120145b1562001d5f576001905062001d60565b5b92915050565b600060fb424460405160200180838152602001828152602001925050506040516020818303038152906040528051906020012060001c8162001da457fe5b06905090565b828054600181600116156101000203166002900490600052602060002090601f016020900481019282601f1062001ded57805160ff191683800117855562001e1e565b8280016001018555821562001e1e579182015b8281111562001e1d57825182559160200191906001019062001e00565b5b50905062001e2d919062001e3f565b5090565b610e2c8062001e6883390190565b62001e6491905b8082111562001e6057600081600090555060010162001e46565b5090565b9056fe608060405260405162000e2c38038062000e2c833981810160405260808110156200002957600080fd5b81019080805160405193929190846401000000008211156200004a57600080fd5b838201915060208201858111156200006157600080fd5b82518660018202830111640100000000821117156200007f57600080fd5b8083526020830192505050908051906020019080838360005b83811015620000b557808201518184015260208101905062000098565b50505050905090810190601f168015620000e35780820380516001836020036101000a031916815260200191505b50604052602001805160405193929190846401000000008211156200010757600080fd5b838201915060208201858111156200011e57600080fd5b82518660018202830111640100000000821117156200013c57600080fd5b8083526020830192505050908051906020019080838360005b838110156200017257808201518184015260208101905062000155565b50505050905090810190601f168015620001a05780820380516001836020036101000a031916815260200191505b5060405260200180516040519392919084640100000000821115620001c457600080fd5b83820191506020820185811115620001db57600080fd5b8251866001820283011164010000000082111715620001f957600080fd5b8083526020830192505050908051906020019080838360005b838110156200022f57808201518184015260208101905062000212565b50505050905090810190601f1680156200025d5780820380516001836020036101000a031916815260200191505b50604052602001805160405193929190846401000000008211156200028157600080fd5b838201915060208201858111156200029857600080fd5b8251866001820283011164010000000082111715620002b657600080fd5b8083526020830192505050908051906020019080838360005b83811015620002ec578082015181840152602081019050620002cf565b50505050905090810190601f1680156200031a5780820380516001836020036101000a031916815260200191505b50604052505050836000806001815260200190815260200160002060000190805190602001906200034d929190620003df565b50826000806001815260200190815260200160002060010190805190602001906200037a929190620003df565b5081600080600181526020019081526020016000206002019080519060200190620003a7929190620003df565b5080600080600181526020019081526020016000206003019080519060200190620003d4929190620003df565b50505050506200048e565b828054600181600116156101000203166002900490600052602060002090601f016020900481019282601f106200042257805160ff191683800117855562000453565b8280016001018555821562000453579182015b828111156200045257825182559160200191906001019062000435565b5b50905062000462919062000466565b5090565b6200048b91905b80821115620004875760008160009055506001016200046d565b5090565b90565b61098e806200049e6000396000f3fe608060405234801561001057600080fd5b50600436106100365760003560e01c806379460dc91461003b578063a66aedb114610202575b600080fd5b6100436103ed565b6040518080602001806020018060200180602001858103855289818151815260200191508051906020019080838360005b8381101561008f578082015181840152602081019050610074565b50505050905090810190601f1680156100bc5780820380516001836020036101000a031916815260200191505b50858103845288818151815260200191508051906020019080838360005b838110156100f55780820151818401526020810190506100da565b50505050905090810190601f1680156101225780820380516001836020036101000a031916815260200191505b50858103835287818151815260200191508051906020019080838360005b8381101561015b578082015181840152602081019050610140565b50505050905090810190601f1680156101885780820380516001836020036101000a031916815260200191505b50858103825286818151815260200191508051906020019080838360005b838110156101c15780820151818401526020810190506101a6565b50505050905090810190601f1680156101ee5780820380516001836020036101000a031916815260200191505b509850505050505050505060405180910390f35b61022e6004803603602081101561021857600080fd5b81019080803590602001909291905050506106c9565b6040518080602001806020018060200180602001858103855289818151815260200191508051906020019080838360005b8381101561027a57808201518184015260208101905061025f565b50505050905090810190601f1680156102a75780820380516001836020036101000a031916815260200191505b50858103845288818151815260200191508051906020019080838360005b838110156102e05780820151818401526020810190506102c5565b50505050905090810190601f16801561030d5780820380516001836020036101000a031916815260200191505b50858103835287818151815260200191508051906020019080838360005b8381101561034657808201518184015260208101905061032b565b50505050905090810190601f1680156103735780820380516001836020036101000a031916815260200191505b50858103825286818151815260200191508051906020019080838360005b838110156103ac578082015181840152602081019050610391565b50505050905090810190601f1680156103d95780820380516001836020036101000a031916815260200191505b509850505050505050505060405180910390f35b60608060608060008060018152602001908152602001600020600001600080600181526020019081526020016000206001016000806001815260200190815260200160002060020160008060018152602001908152602001600020600301838054600181600116156101000203166002900480601f0160208091040260200160405190810160405280929190818152602001828054600181600116156101000203166002900480156104e05780601f106104b5576101008083540402835291602001916104e0565b820191906000526020600020905b8154815290600101906020018083116104c357829003601f168201915b50505050509350828054600181600116156101000203166002900480601f01602080910402602001604051908101604052809291908181526020018280546001816001161561010002031660029004801561057c5780601f106105515761010080835404028352916020019161057c565b820191906000526020600020905b81548152906001019060200180831161055f57829003601f168201915b50505050509250818054600181600116156101000203166002900480601f0160208091040260200160405190810160405280929190818152602001828054600181600116156101000203166002900480156106185780601f106105ed57610100808354040283529160200191610618565b820191906000526020600020905b8154815290600101906020018083116105fb57829003601f168201915b50505050509150808054600181600116156101000203166002900480601f0160208091040260200160405190810160405280929190818152602001828054600181600116156101000203166002900480156106b45780601f10610689576101008083540402835291602001916106b4565b820191906000526020600020905b81548152906001019060200180831161069757829003601f168201915b50505050509050935093509350935090919293565b6000602052806000526040600020600091509050806000018054600181600116156101000203166002900480601f0160208091040260200160405190810160405280929190818152602001828054600181600116156101000203166002900480156107755780601f1061074a57610100808354040283529160200191610775565b820191906000526020600020905b81548152906001019060200180831161075857829003601f168201915b505050505090806001018054600181600116156101000203166002900480601f0160208091040260200160405190810160405280929190818152602001828054600181600116156101000203166002900480156108135780601f106107e857610100808354040283529160200191610813565b820191906000526020600020905b8154815290600101906020018083116107f657829003601f168201915b505050505090806002018054600181600116156101000203166002900480601f0160208091040260200160405190810160405280929190818152602001828054600181600116156101000203166002900480156108b15780601f10610886576101008083540402835291602001916108b1565b820191906000526020600020905b81548152906001019060200180831161089457829003601f168201915b505050505090806003018054600181600116156101000203166002900480601f01602080910402602001604051908101604052809291908181526020018280546001816001161561010002031660029004801561094f5780601f106109245761010080835404028352916020019161094f565b820191906000526020600020905b81548152906001019060200180831161093257829003601f168201915b505050505090508456fea265627a7a72315820d1c009a4dc992ff05f69b83e4b04b813311485f79cc3b9fe7741868a7aefa7b664736f6c63430005100032a265627a7a72315820c5e59db428146a8cedf745d9a0c228e42e278d108ae608ca81976d49967d14c764736f6c63430005100032",
  "source": "pragma solidity ^0.5.16;\n\ncontract Bank1 {\n    \n    \n    struct User{\n        uint uid;\n        string username;\n        string password;\n    }\n    \n    struct Kyc{\n        string fullname;\n        string fathername;\n        string gender;\n        string dob;\n    }\n    \n    \n    enum Status {\n        Idle,\n        Accept,\n        Decline\n    }\n    \n    \n    event RequestKyc (\n        address requesterAddress,\n        string bankname\n        );\n        \n    event NewKycAddress (\n        address contractAddress\n        );\n\n    address public lastContractAddress;\n    \n    address[] public contracts;\n        \n    Status public status;\n   \n    mapping(address => User) public userDetails;\n    \n    mapping(address => Kyc ) public kycDetails;\n    \n    \n    //     constructor() public {\n    \n    //     address myconnectionaddress = 0xd9145CCE52D386f254917e481eB44e9943F39138;\n    //     myconnection = Connection(myconnectionaddress);\n        \n    // }\n    \n    \n    \n    \n    \n    function random() private view returns (uint8) {\n       return uint8(uint256(keccak256(abi.encodePacked(block.timestamp, block.difficulty)))%251);\n   }\n    \n    function loginCustomer(string memory _username, string memory _password) public view  returns(bool){\n        \n        \n        \n            \n            \n            if( keccak256(abi.encodePacked(userDetails[msg.sender].username)) == keccak256(abi.encodePacked(_username)) && keccak256(abi.encodePacked(userDetails[msg.sender].password)) == keccak256(abi.encodePacked(_password))){\n                return true;\n            }\n                    \n    }\n    \n\n    \n    function signUpCustomer(string memory _username, string memory _password) public payable returns(bool) {\n        \n        userDetails[msg.sender] = User(random(),_username,_password);\n        \n        \n        if(loginCustomer(_username,_password) == true)\n            return true;\n        \n    }\n    \n\n    \n    function buildKyc(string memory _fullname, string memory _fathername, string memory _gender, string memory _dob) public {\n         // Section where we store the kyc of the customer in blockchain\n         kycDetails[msg.sender] = Kyc(_fullname,_fathername,_gender,_dob);\n             \n    } \n     \n    function KycBlock() public payable{\n        \n        KYC kyc = new KYC(kycDetails[msg.sender].fullname, kycDetails[msg.sender].fathername, kycDetails[msg.sender].gender, kycDetails[msg.sender].dob);\n        \n        lastContractAddress = address(kyc);\n        emit NewKycAddress(lastContractAddress);\n        \n    } \n     \n    function GetKyc(address _youraddress) public view returns(string memory _fullname, string memory _fathername, string memory _dob, string memory _gender){\n        \n        return KYC(_youraddress).giveKyc();\n    }\n\n\n\n}\n\n\ncontract KYC {\n    \n    \n        \n    struct Kyc{\n        string fullname;\n        string fathername;\n        string gender;\n        string dob;\n    }\n    \n    mapping( uint => Kyc ) public newKyc;\n    \n    constructor(string memory _fullname, string memory _fathername, string memory _gender, string memory _dob) public payable {\n        newKyc[1].fullname = _fullname;\n        newKyc[1].fathername = _fathername;\n        newKyc[1].gender = _gender;\n        newKyc[1].dob = _dob;\n        \n    }\n    \n    function giveKyc() public view returns(string memory _fullname, string memory _fathername, string memory _dob, string memory _gender){\n        \n        return(newKyc[1].fullname, newKyc[1].fathername, newKyc[1].gender, newKyc[1].dob);\n    }\n    \n}\n\n",
  "sourcePath": "/home/binay/react-dapp/contracts/Bank1.sol",
  "compiler": {
    "name": "solc",
    "version": "0.5.16+commit.9c3226ce.Emscripten.clang"
  },
  "schemaVersion": "3.2.0",
  "updatedAt": "2021-02-11T10:57:57.178Z",
  "networkType": "ethereum",
  "devdoc": {
    "methods": {}
  },
  "userdoc": {
    "methods": {}
  }
}