{
  "contractName": "KYC",
  "abi": [
    {
      "inputs": [
        {
          "internalType": "string[5]",
          "name": "fai",
          "type": "string[5]"
        },
        {
          "internalType": "string[3]",
          "name": "padd",
          "type": "string[3]"
        },
        {
          "internalType": "string[3]",
          "name": "pin",
          "type": "string[3]"
        },
        {
          "internalType": "string[5]",
          "name": "iinf",
          "type": "string[5]"
        },
        {
          "internalType": "string[4]",
          "name": "picture",
          "type": "string[4]"
        }
      ],
      "payable": true,
      "stateMutability": "payable",
      "type": "constructor"
    },
    {
      "constant": true,
      "inputs": [],
      "name": "giveKyc",
      "outputs": [
        {
          "internalType": "string[5]",
          "name": "",
          "type": "string[5]"
        },
        {
          "internalType": "string[3]",
          "name": "",
          "type": "string[3]"
        },
        {
          "internalType": "string[3]",
          "name": "",
          "type": "string[3]"
        },
        {
          "internalType": "string[5]",
          "name": "",
          "type": "string[5]"
        },
        {
          "internalType": "string[4]",
          "name": "",
          "type": "string[4]"
        }
      ],
      "payable": false,
      "stateMutability": "view",
      "type": "function"
    }
  ],
  "bytecode": "0x608060405260405162000fb438038062000fb48339818101604052620000299190810190620004dc565b846000806001815260200190815260200160002060000190600562000050929190620000fc565b5083600080600181526020019081526020016000206005019060036200007892919062000156565b508260008060018152602001908152602001600020600801906003620000a092919062000156565b508160008060018152602001908152602001600020600b01906005620000c8929190620000fc565b508060008060018152602001908152602001600020601001906004620000f0929190620001b0565b505050505050620006d5565b826005810192821562000143579160200282015b8281111562000142578251829080519060200190620001319291906200020a565b509160200191906001019062000110565b5b50905062000152919062000291565b5090565b82600381019282156200019d579160200282015b828111156200019c5782518290805190602001906200018b9291906200020a565b50916020019190600101906200016a565b5b509050620001ac919062000291565b5090565b8260048101928215620001f7579160200282015b82811115620001f6578251829080519060200190620001e59291906200020a565b5091602001919060010190620001c4565b5b50905062000206919062000291565b5090565b828054600181600116156101000203166002900490600052602060002090601f016020900481019282601f106200024d57805160ff19168380011785556200027e565b828001600101855582156200027e579182015b828111156200027d57825182559160200191906001019062000260565b5b5090506200028d9190620002c2565b5090565b620002bf91905b80821115620002bb5760008181620002b19190620002ea565b5060010162000298565b5090565b90565b620002e791905b80821115620002e3576000816000905550600101620002c9565b5090565b90565b50805460018160011615610100020316600290046000825580601f1062000312575062000333565b601f016020900490600052602060002090810190620003329190620002c2565b5b50565b600082601f8301126200034857600080fd5b60036200035f620003598262000609565b620005db565b9150818360005b838110156200039a57815186016200037f888262000480565b84526020840193506020830192505060018101905062000366565b5050505092915050565b600082601f830112620003b657600080fd5b6004620003cd620003c7826200062c565b620005db565b9150818360005b83811015620004085781518601620003ed888262000480565b845260208401935060208301925050600181019050620003d4565b5050505092915050565b600082601f8301126200042457600080fd5b60056200043b62000435826200064f565b620005db565b9150818360005b838110156200047657815186016200045b888262000480565b84526020840193506020830192505060018101905062000442565b5050505092915050565b600082601f8301126200049257600080fd5b8151620004a9620004a38262000672565b620005db565b91508082526020830160208301858383011115620004c657600080fd5b620004d38382846200069f565b50505092915050565b600080600080600060a08688031215620004f557600080fd5b600086015167ffffffffffffffff8111156200051057600080fd5b6200051e8882890162000412565b955050602086015167ffffffffffffffff8111156200053c57600080fd5b6200054a8882890162000336565b945050604086015167ffffffffffffffff8111156200056857600080fd5b620005768882890162000336565b935050606086015167ffffffffffffffff8111156200059457600080fd5b620005a28882890162000412565b925050608086015167ffffffffffffffff811115620005c057600080fd5b620005ce88828901620003a4565b9150509295509295909350565b6000604051905081810181811067ffffffffffffffff82111715620005ff57600080fd5b8060405250919050565b600067ffffffffffffffff8211156200062157600080fd5b602082029050919050565b600067ffffffffffffffff8211156200064457600080fd5b602082029050919050565b600067ffffffffffffffff8211156200066757600080fd5b602082029050919050565b600067ffffffffffffffff8211156200068a57600080fd5b601f19601f8301169050602081019050919050565b60005b83811015620006bf578082015181840152602081019050620006a2565b83811115620006cf576000848401525b50505050565b6108cf80620006e56000396000f3fe608060405234801561001057600080fd5b506004361061002b5760003560e01c806379460dc914610030575b600080fd5b610038610052565b60405161004995949392919061072f565b60405180910390f35b61005a61050e565b610062610535565b61006a610535565b61007261050e565b61007a61055c565b60008060018152602001908152602001600020600001600080600181526020019081526020016000206005016000806001815260200190815260200160002060080160008060018152602001908152602001600020600b016000806001815260200190815260200160002060100184600580602002604051908101604052809291906000905b828210156101b3578382018054600181600116156101000203166002900480601f01602080910402602001604051908101604052809291908181526020018280546001816001161561010002031660029004801561019f5780601f106101745761010080835404028352916020019161019f565b820191906000526020600020905b81548152906001019060200180831161018257829003601f168201915b505050505081526020019060010190610100565b50505050945083600380602002604051908101604052809291906000905b82821015610284578382018054600181600116156101000203166002900480601f0160208091040260200160405190810160405280929190818152602001828054600181600116156101000203166002900480156102705780601f1061024557610100808354040283529160200191610270565b820191906000526020600020905b81548152906001019060200180831161025357829003601f168201915b5050505050815260200190600101906101d1565b50505050935082600380602002604051908101604052809291906000905b82821015610355578382018054600181600116156101000203166002900480601f0160208091040260200160405190810160405280929190818152602001828054600181600116156101000203166002900480156103415780601f1061031657610100808354040283529160200191610341565b820191906000526020600020905b81548152906001019060200180831161032457829003601f168201915b5050505050815260200190600101906102a2565b50505050925081600580602002604051908101604052809291906000905b82821015610426578382018054600181600116156101000203166002900480601f0160208091040260200160405190810160405280929190818152602001828054600181600116156101000203166002900480156104125780601f106103e757610100808354040283529160200191610412565b820191906000526020600020905b8154815290600101906020018083116103f557829003601f168201915b505050505081526020019060010190610373565b50505050915080600480602002604051908101604052809291906000905b828210156104f7578382018054600181600116156101000203166002900480601f0160208091040260200160405190810160405280929190818152602001828054600181600116156101000203166002900480156104e35780601f106104b8576101008083540402835291602001916104e3565b820191906000526020600020905b8154815290600101906020018083116104c657829003601f168201915b505050505081526020019060010190610444565b505050509050945094509450945094509091929394565b6040518060a001604052806005905b606081526020019060019003908161051d5790505090565b60405180606001604052806003905b60608152602001906001900390816105445790505090565b60405180608001604052806004905b606081526020019060019003908161056b5790505090565b600061058f83836106f6565b905092915050565b60006105a2826107c3565b6105ac8185610816565b9350836020820285016105be856107a5565b8060005b858110156105fa57848403895281516105db8582610583565b94506105e6836107ef565b925060208a019950506001810190506105c2565b50829750879550505050505092915050565b6000610617826107ce565b6106218185610821565b935083602082028501610633856107af565b8060005b8581101561066f57848403895281516106508582610583565b945061065b836107fc565b925060208a01995050600181019050610637565b50829750879550505050505092915050565b600061068c826107d9565b610696818561082c565b9350836020820285016106a8856107b9565b8060005b858110156106e457848403895281516106c58582610583565b94506106d083610809565b925060208a019950506001810190506106ac565b50829750879550505050505092915050565b6000610701826107e4565b61070b8185610837565b935061071b818560208601610848565b6107248161087b565b840191505092915050565b600060a08201905081810360008301526107498188610681565b9050818103602083015261075d8187610597565b905081810360408301526107718186610597565b905081810360608301526107858185610681565b90508181036080830152610799818461060c565b90509695505050505050565b6000819050919050565b6000819050919050565b6000819050919050565b600060039050919050565b600060049050919050565b600060059050919050565b600081519050919050565b6000602082019050919050565b6000602082019050919050565b6000602082019050919050565b600081905092915050565b600081905092915050565b600081905092915050565b600082825260208201905092915050565b60005b8381101561086657808201518184015260208101905061084b565b83811115610875576000848401525b50505050565b6000601f19601f830116905091905056fea365627a7a72315820562b0417fb9af9be177d5397fedc02d9d00085093107812fabf87a3543194d406c6578706572696d656e74616cf564736f6c63430005100040",
  "source": "pragma solidity ^0.5.16;\npragma experimental ABIEncoderV2;\n\ncontract Bank1 {\n    \n    \n    struct User{\n        uint uid;\n        string username;\n        string password;\n    }\n    \n    struct Kyc{\n        string[5] familyinfo;\n        string[3] personaladd;\n        string[3] personalinfo;\n        string[5] identityinfo;\n    }\n    \n    \n    enum Status {\n        Idle,\n        Accept,\n        Decline\n    }\n    \n    \n    event RequestKyc (\n        address requesterAddress,\n        string bankname\n        );\n        \n    event NewKycAddress (\n        address contractAddress\n        );\n\n    address public lastContractAddress;\n    \n    address[] public contracts;\n        \n    Status public status;\n\n    \n   \n    mapping(address => User) public userDetails;\n    \n    mapping(address => Kyc ) private kycDetails;\n    \n    \n    function random() private view returns (uint8) {\n       return uint8(uint256(keccak256(abi.encodePacked(block.timestamp, block.difficulty)))%251);\n   }\n    \n    function loginCustomer(string memory _username, string memory _password) public view  returns(bool){\n        \n        \n        \n            \n            \n            if( keccak256(abi.encodePacked(userDetails[msg.sender].username)) == keccak256(abi.encodePacked(_username)) && keccak256(abi.encodePacked(userDetails[msg.sender].password)) == keccak256(abi.encodePacked(_password))){\n                return true;\n            }\n                    \n    }\n    \n\n    \n    function signUpCustomer(string memory _username, string memory _password) public payable returns(bool) {\n        \n        userDetails[msg.sender] = User(random(),_username,_password);\n        \n        \n        if(loginCustomer(_username,_password) == true)\n            return true;\n        \n    }\n    \n    \n    function buildKyc(string[5] memory fi, string[3] memory pa, string[3] memory pi, string[5] memory ii) public {\n         // Section where we store the kyc of the customer in blockchain\n\n        \n         kycDetails[msg.sender] = Kyc(fi,pa,pi,ii);\n        \n             \n    } \n     \n\n\n    function KycBlock (string[5] memory fi, string[3] memory pa, string[3] memory pi, string[5] memory ii, string[4] memory picture) public payable{\n     KYC kyc = new KYC(fi, pa, pi, ii, picture);\n    \n        lastContractAddress = address(kyc);\n        emit NewKycAddress(lastContractAddress);\n    }\n\n    // function KycBlock() public payable{\n        \n        \n    //     KYC kyc = new KYC(familyinfo,kycDetails[msg.sender].personaladd,kycDetails[msg.sender].personalinfo,kycDetails[msg.sender].identityinfo);\n        \n    //     lastContractAddress = address(kyc);\n    //     emit NewKycAddress(lastContractAddress);\n        \n    // } \n     \n    function GetKyc(address _youraddress) public view returns(string[5] memory, string[3] memory, string[3] memory, string[5] memory, string[4] memory){\n        \n        return KYC(_youraddress).giveKyc();\n    }\n\n\n\n}\n\n\ncontract KYC {\n    \n    \n        \n    struct Kyc{\n        string[5] _familyinfo;\n        string[3] _personaladd;\n        string[3] _personalinfo;\n        string[5] _identityinfo;\n        string[4] _picture;\n    }\n    \n    mapping( uint => Kyc ) private newKyc;\n    \n    constructor(string[5] memory fai, string[3] memory padd, string[3] memory pin, string[5] memory iinf, string[4] memory picture) public payable {\n        newKyc[1]._familyinfo = fai;\n        newKyc[1]._personaladd = padd;\n        newKyc[1]._personalinfo = pin;\n        newKyc[1]._identityinfo = iinf;\n        newKyc[1]._picture = picture;\n        \n    }\n    \n    function giveKyc() public view returns(string[5] memory, string[3] memory, string[3] memory, string[5] memory, string[4] memory){\n\n        return(newKyc[1]._familyinfo,newKyc[1]._personaladd,newKyc[1]._personalinfo,newKyc[1]._identityinfo, newKyc[1]._picture);\n    }\n    \n}\n\n\n",
  "sourcePath": "/home/elnino/Desktop/ReactBlockchain__dapp/contracts/Bank1.sol",
  "compiler": {
    "name": "solc",
    "version": "0.5.16+commit.9c3226ce.Emscripten.clang"
  },
  "schemaVersion": "3.3.4",
  "updatedAt": "2021-03-02T19:02:33.191Z",
  "devdoc": {
    "methods": {}
  },
  "userdoc": {
    "methods": {}
  }
}