{
  "contractName": "KYC",
  "abi": [
    {
      "inputs": [
        {
          "internalType": "string",
          "name": "_fullname",
          "type": "string"
        },
        {
          "internalType": "string",
          "name": "_fathername",
          "type": "string"
        },
        {
          "internalType": "string",
          "name": "_gender",
          "type": "string"
        },
        {
          "internalType": "string",
          "name": "_dob",
          "type": "string"
        }
      ],
      "payable": true,
      "stateMutability": "payable",
      "type": "constructor"
    },
    {
      "constant": true,
      "inputs": [
        {
          "internalType": "uint256",
          "name": "",
          "type": "uint256"
        }
      ],
      "name": "newKyc",
      "outputs": [
        {
          "internalType": "string",
          "name": "fullname",
          "type": "string"
        },
        {
          "internalType": "string",
          "name": "fathername",
          "type": "string"
        },
        {
          "internalType": "string",
          "name": "gender",
          "type": "string"
        },
        {
          "internalType": "string",
          "name": "dob",
          "type": "string"
        }
      ],
      "payable": false,
      "stateMutability": "view",
      "type": "function"
    },
    {
      "constant": true,
      "inputs": [],
      "name": "giveKyc",
      "outputs": [
        {
          "internalType": "string",
          "name": "_fullname",
          "type": "string"
        },
        {
          "internalType": "string",
          "name": "_fathername",
          "type": "string"
        },
        {
          "internalType": "string",
          "name": "_dob",
          "type": "string"
        },
        {
          "internalType": "string",
          "name": "_gender",
          "type": "string"
        }
      ],
      "payable": false,
      "stateMutability": "view",
      "type": "function"
    }
  ],
  "bytecode": "0x608060405260405162000e2c38038062000e2c833981810160405260808110156200002957600080fd5b81019080805160405193929190846401000000008211156200004a57600080fd5b838201915060208201858111156200006157600080fd5b82518660018202830111640100000000821117156200007f57600080fd5b8083526020830192505050908051906020019080838360005b83811015620000b557808201518184015260208101905062000098565b50505050905090810190601f168015620000e35780820380516001836020036101000a031916815260200191505b50604052602001805160405193929190846401000000008211156200010757600080fd5b838201915060208201858111156200011e57600080fd5b82518660018202830111640100000000821117156200013c57600080fd5b8083526020830192505050908051906020019080838360005b838110156200017257808201518184015260208101905062000155565b50505050905090810190601f168015620001a05780820380516001836020036101000a031916815260200191505b5060405260200180516040519392919084640100000000821115620001c457600080fd5b83820191506020820185811115620001db57600080fd5b8251866001820283011164010000000082111715620001f957600080fd5b8083526020830192505050908051906020019080838360005b838110156200022f57808201518184015260208101905062000212565b50505050905090810190601f1680156200025d5780820380516001836020036101000a031916815260200191505b50604052602001805160405193929190846401000000008211156200028157600080fd5b838201915060208201858111156200029857600080fd5b8251866001820283011164010000000082111715620002b657600080fd5b8083526020830192505050908051906020019080838360005b83811015620002ec578082015181840152602081019050620002cf565b50505050905090810190601f1680156200031a5780820380516001836020036101000a031916815260200191505b50604052505050836000806001815260200190815260200160002060000190805190602001906200034d929190620003df565b50826000806001815260200190815260200160002060010190805190602001906200037a929190620003df565b5081600080600181526020019081526020016000206002019080519060200190620003a7929190620003df565b5080600080600181526020019081526020016000206003019080519060200190620003d4929190620003df565b50505050506200048e565b828054600181600116156101000203166002900490600052602060002090601f016020900481019282601f106200042257805160ff191683800117855562000453565b8280016001018555821562000453579182015b828111156200045257825182559160200191906001019062000435565b5b50905062000462919062000466565b5090565b6200048b91905b80821115620004875760008160009055506001016200046d565b5090565b90565b61098e806200049e6000396000f3fe608060405234801561001057600080fd5b50600436106100365760003560e01c806379460dc91461003b578063a66aedb114610202575b600080fd5b6100436103ed565b6040518080602001806020018060200180602001858103855289818151815260200191508051906020019080838360005b8381101561008f578082015181840152602081019050610074565b50505050905090810190601f1680156100bc5780820380516001836020036101000a031916815260200191505b50858103845288818151815260200191508051906020019080838360005b838110156100f55780820151818401526020810190506100da565b50505050905090810190601f1680156101225780820380516001836020036101000a031916815260200191505b50858103835287818151815260200191508051906020019080838360005b8381101561015b578082015181840152602081019050610140565b50505050905090810190601f1680156101885780820380516001836020036101000a031916815260200191505b50858103825286818151815260200191508051906020019080838360005b838110156101c15780820151818401526020810190506101a6565b50505050905090810190601f1680156101ee5780820380516001836020036101000a031916815260200191505b509850505050505050505060405180910390f35b61022e6004803603602081101561021857600080fd5b81019080803590602001909291905050506106c9565b6040518080602001806020018060200180602001858103855289818151815260200191508051906020019080838360005b8381101561027a57808201518184015260208101905061025f565b50505050905090810190601f1680156102a75780820380516001836020036101000a031916815260200191505b50858103845288818151815260200191508051906020019080838360005b838110156102e05780820151818401526020810190506102c5565b50505050905090810190601f16801561030d5780820380516001836020036101000a031916815260200191505b50858103835287818151815260200191508051906020019080838360005b8381101561034657808201518184015260208101905061032b565b50505050905090810190601f1680156103735780820380516001836020036101000a031916815260200191505b50858103825286818151815260200191508051906020019080838360005b838110156103ac578082015181840152602081019050610391565b50505050905090810190601f1680156103d95780820380516001836020036101000a031916815260200191505b509850505050505050505060405180910390f35b60608060608060008060018152602001908152602001600020600001600080600181526020019081526020016000206001016000806001815260200190815260200160002060020160008060018152602001908152602001600020600301838054600181600116156101000203166002900480601f0160208091040260200160405190810160405280929190818152602001828054600181600116156101000203166002900480156104e05780601f106104b5576101008083540402835291602001916104e0565b820191906000526020600020905b8154815290600101906020018083116104c357829003601f168201915b50505050509350828054600181600116156101000203166002900480601f01602080910402602001604051908101604052809291908181526020018280546001816001161561010002031660029004801561057c5780601f106105515761010080835404028352916020019161057c565b820191906000526020600020905b81548152906001019060200180831161055f57829003601f168201915b50505050509250818054600181600116156101000203166002900480601f0160208091040260200160405190810160405280929190818152602001828054600181600116156101000203166002900480156106185780601f106105ed57610100808354040283529160200191610618565b820191906000526020600020905b8154815290600101906020018083116105fb57829003601f168201915b50505050509150808054600181600116156101000203166002900480601f0160208091040260200160405190810160405280929190818152602001828054600181600116156101000203166002900480156106b45780601f10610689576101008083540402835291602001916106b4565b820191906000526020600020905b81548152906001019060200180831161069757829003601f168201915b50505050509050935093509350935090919293565b6000602052806000526040600020600091509050806000018054600181600116156101000203166002900480601f0160208091040260200160405190810160405280929190818152602001828054600181600116156101000203166002900480156107755780601f1061074a57610100808354040283529160200191610775565b820191906000526020600020905b81548152906001019060200180831161075857829003601f168201915b505050505090806001018054600181600116156101000203166002900480601f0160208091040260200160405190810160405280929190818152602001828054600181600116156101000203166002900480156108135780601f106107e857610100808354040283529160200191610813565b820191906000526020600020905b8154815290600101906020018083116107f657829003601f168201915b505050505090806002018054600181600116156101000203166002900480601f0160208091040260200160405190810160405280929190818152602001828054600181600116156101000203166002900480156108b15780601f10610886576101008083540402835291602001916108b1565b820191906000526020600020905b81548152906001019060200180831161089457829003601f168201915b505050505090806003018054600181600116156101000203166002900480601f01602080910402602001604051908101604052809291908181526020018280546001816001161561010002031660029004801561094f5780601f106109245761010080835404028352916020019161094f565b820191906000526020600020905b81548152906001019060200180831161093257829003601f168201915b505050505090508456fea265627a7a72315820d1c009a4dc992ff05f69b83e4b04b813311485f79cc3b9fe7741868a7aefa7b664736f6c63430005100032",
  "source": "pragma solidity ^0.5.16;\n\ncontract Bank1 {\n    \n    \n    struct User{\n        uint uid;\n        string username;\n        string password;\n    }\n    \n    struct Kyc{\n        string fullname;\n        string fathername;\n        string gender;\n        string dob;\n    }\n    \n    \n    enum Status {\n        Idle,\n        Accept,\n        Decline\n    }\n    \n    \n    event RequestKyc (\n        address requesterAddress,\n        string bankname\n        );\n        \n    event NewKycAddress (\n        address contractAddress\n        );\n\n    address public lastContractAddress;\n    \n    address[] public contracts;\n        \n    Status public status;\n   \n    mapping(address => User) public userDetails;\n    \n    mapping(address => Kyc ) public kycDetails;\n    \n    \n    //     constructor() public {\n    \n    //     address myconnectionaddress = 0xd9145CCE52D386f254917e481eB44e9943F39138;\n    //     myconnection = Connection(myconnectionaddress);\n        \n    // }\n    \n    \n    \n    \n    \n    function random() private view returns (uint8) {\n       return uint8(uint256(keccak256(abi.encodePacked(block.timestamp, block.difficulty)))%251);\n   }\n    \n    function loginCustomer(string memory _username, string memory _password) public view  returns(bool){\n        \n        \n        \n            \n            \n            if( keccak256(abi.encodePacked(userDetails[msg.sender].username)) == keccak256(abi.encodePacked(_username)) && keccak256(abi.encodePacked(userDetails[msg.sender].password)) == keccak256(abi.encodePacked(_password))){\n                return true;\n            }\n                    \n    }\n    \n\n    \n    function signUpCustomer(string memory _username, string memory _password) public payable returns(bool) {\n        \n        userDetails[msg.sender] = User(random(),_username,_password);\n        \n        \n        if(loginCustomer(_username,_password) == true)\n            return true;\n        \n    }\n    \n\n    \n    function buildKyc(string memory _fullname, string memory _fathername, string memory _gender, string memory _dob) public {\n         // Section where we store the kyc of the customer in blockchain\n         kycDetails[msg.sender] = Kyc(_fullname,_fathername,_gender,_dob);\n             \n    } \n     \n    function KycBlock() public payable{\n        \n        KYC kyc = new KYC(kycDetails[msg.sender].fullname, kycDetails[msg.sender].fathername, kycDetails[msg.sender].gender, kycDetails[msg.sender].dob);\n        \n        lastContractAddress = address(kyc);\n        emit NewKycAddress(lastContractAddress);\n        \n    } \n     \n    function GetKyc(address _youraddress) public view returns(string memory _fullname, string memory _fathername, string memory _dob, string memory _gender){\n        \n        return KYC(_youraddress).giveKyc();\n    }\n\n\n\n}\n\n\ncontract KYC {\n    \n    \n        \n    struct Kyc{\n        string fullname;\n        string fathername;\n        string gender;\n        string dob;\n    }\n    \n    mapping( uint => Kyc ) public newKyc;\n    \n    constructor(string memory _fullname, string memory _fathername, string memory _gender, string memory _dob) public payable {\n        newKyc[1].fullname = _fullname;\n        newKyc[1].fathername = _fathername;\n        newKyc[1].gender = _gender;\n        newKyc[1].dob = _dob;\n        \n    }\n    \n    function giveKyc() public view returns(string memory _fullname, string memory _fathername, string memory _dob, string memory _gender){\n        \n        return(newKyc[1].fullname, newKyc[1].fathername, newKyc[1].gender, newKyc[1].dob);\n    }\n    \n}\n\n",
  "sourcePath": "/home/binay/react-dapp/contracts/Bank1.sol",
  "compiler": {
    "name": "solc",
    "version": "0.5.16+commit.9c3226ce.Emscripten.clang"
  },
  "schemaVersion": "3.2.0",
  "updatedAt": "2021-02-11T06:37:38.610Z",
  "devdoc": {
    "methods": {}
  },
  "userdoc": {
    "methods": {}
  }
}